:020000040800F2
:10000000884E002081020008BB2C0008C72500088C
:10001000B92C0008BF0300088D360008000000005E
:10002000000000000000000000000000C501000802
:100030004D0600080000000019020008352E0008D7
:100040009B0200089B0200089B0200089B0200081C
:100050009B0200089B0200089B0200089B0200080C
:100060009B0200089B0200089B0200089B020008FC
:10007000790500089B0200089B0200089B0200080B
:10008000850500089B0200089B020008CD030008BC
:10009000C10300089B0200089B0200089B020008A5
:1000A0009B0200089B0200089B0200089B020008BC
:1000B0009B0200089B0200089B0200089B020008AC
:1000C0009B0200089B0200089B0200089B0200089C
:1000D0009B020008513600085D360008753600089E
:1000E0009B0200089B0200089B0200089B0200087C
:1000F0009B0200089B0200089B0200089B0200086C
:100100009B0200089B0200089B0200089B0200085B
:100110009B0200089B020008312F00089B02000888
:100120009B020008910500089D0500089B0200083D
:100130009B0200089B0200089B020008E5030008E0
:10014000D90300089B0200089B0200089B020008DC
:100150009B0200089B0200089B02000881360008F1
:100160009B0200089B0200089B0200089B020008FB
:100170009B0200089B0200089B0200080000000090
:100180009B0200089B0200089B0200089B020008DB
:100190009B0200089B0200089B0200089B020008CB
:1001A00000000000000000009B020008DFF810D0F3
:1001B00000F0D4F80048004729400008AFF3008061
:1001C000884E00202B4B19680868B0E8F04F80F388
:1001D0000988BFF36F8F4FF0000080F311887047DC
:1001E0000000000006480068006880F3088862B6D6
:1001F00061B6BFF34F8FBFF36F8F00DF00BF00BF4B
:1002000008ED00E0DFF80C00016841F470010160C6
:10021000704700BF88ED00E0EFF30980BFF36F8FF8
:10022000144B1A681EF0100F08BF20ED108A20E949
:10023000F04F106008B44FF0500080F31188BFF306
:100240004F8FBFF36F8F05F0A9F94FF0000080F3D7
:10025000118808BC19680868B0E8F04F1EF0100F4C
:1002600008BFB0EC108A80F30988BFF36F8F704726
:1002700000BF00BF08000020EFF3058070470000BA
:100280000648804706480047FEE7FEE7FEE7FEE730
:10029000FEE7FEE7FEE7FEE7FEE7FEE7DD2E0008ED
:1002A000AD01000840EA01039B0703D009E008C93B
:1002B000121F08C0042AFAD203E011F8013B00F82B
:1002C000013B521EF9D27047D2B201E000F8012B77
:1002D000491EFBD270470022F6E710B513460A46C6
:1002E00004461946FFF7F0FF204610BD421C10F8E7
:1002F000011B0029FBD1801A70472DE9F05F0546EC
:10030000002092469B4688460646814640241BE0D4
:10031000284641464746224600F041F853465A4691
:10032000C01A914110D311461846224600F028F811
:100330002D1A67EB01084F4622460120002100F0EC
:100340001FF817EB00094E41201EA4F10104DFDC69
:10035000484631462A464346BDE8F09F064C074DC5
:1003600006E0E06840F0010394E807009847103485
:10037000AC42F6D3FFF71EFFD45B0008F45B000825
:10038000202A04DB203A00FA02F100207047914055
:10039000C2F1200320FA03F3194390407047202A4A
:1003A00004DB203A21FA02F00021704721FA02F31F
:1003B000D040C2F120029140084319467047FEE741
:1003C000014800F0B9B900008C440020014800F059
:1003D000B3B900008C440020014800F0ADB9000022
:1003E000CC440020014800F0A7B90000CC44002014
:1003F00010B54FF4D872036802EB01129B5813F04A
:100400000404436B9C600468436BA45854D0E40814
:100410005C6003689A58436B02F00202DA604FF4A2
:10042000DA72036802EB01129B58446B03F00F036E
:10043000236103689A58436BC2F30722DA614FF4D1
:10044000DC72036802EB01129B58446B237503684E
:100450009B58446B1B0A637503689B58446B1B0CC9
:10046000A37503689A58436B120EDA754FF4DE7267
:10047000036802EB01129B58446B237603689B5878
:10048000446B1B0A637603689B58446B1B0CA37672
:1004900003689A58436B120EDA762022002901680D
:1004A0000DD00A6101684A6922F010024A6190F891
:1004B0003810222909D021E0640D1C60A9E7CA6028
:1004C00001684A6922F00202F0E701684A6922F4F1
:1004D00080724A6101684A6922F400724A610168C7
:1004E0004A6922F480624A6101684A6922F4006222
:1004F0004A6101684A6922F400424A6190F8381062
:10050000322907D05FF0010180F8381000F02CFB91
:10051000002010BD1221F7E710B501684A6922F0EA
:1005200001024A6190F83810122918D101684A690D
:1005300022F480724A6101684A6922F400724A61B9
:1005400001684A6922F480624A6101684A6922F4BA
:1005500000624A6101684A6922F400424A6190F8E7
:100560003810322906D0012180F8381000F016FC2E
:10057000002010BD2221F7E7014800F023BC000055
:10058000DC400020014800F01DBC00007C40002041
:10059000014800F017BC00003C410020014800F079
:1005A00011BC00001C40002001681823CAB2103A98
:1005B000B2FBF3F2054B6FF30901032A9B5CC365A1
:1005C00000D9091D81650846704700006C5A000873
:1005D00010B5014600208B698A6A4FF0C07453B190
:1005E000B3F5005F15D072B1012A0CD0022A0AD0EF
:1005F000032A09D104E01AB1012A06D0022A03D144
:10060000C96AC90100D5012010BDC96AA142FAD04A
:1006100010BD002AF7D0012AF2D0022AF3D0032A13
:10062000F3D010BD30B50468256825F48025256019
:10063000046863608368402B036803D09960006896
:10064000C26030BD9A600068C16030BD7047FEE78F
:10065000F0B50A7D01209040344A136843F001034D
:100660001360136823F47C53136013684C6A43EAE5
:10067000042313602D4B1C331C6884431C602B4DDA
:100680002B4CCE690C35A6B92E6886432E608F8917
:100690004E6867F31F464F6904EBC707C7F840660B
:1006A0000F890E6867F31F464F6904EBC707C7F849
:1006B0004466CE69012E14D12E6806432E600E8842
:1006C0004D6866F31F454E6904EBC606C6F84056F2
:1006D0000E89CD6866F31F454E6904EBC604C4F865
:1006E0004456124C8D69241D002D256806D0054303
:1006F00025600E4C0D69143415B104E08543F7E70D
:100700002568854325600D69012D02D125680543C3
:100710002560096A012902D119680143196010682E
:1007200020F0010010600020F0BD000000660040D5
:10073000006000407047000010B504460068416941
:10074000C943C90714D182685849914368D0002130
:100750008368574A9A4365D0002283685548984376
:1007600062D000201143014302D02046FFF7D4FE9F
:100770002068C168406911F0030FC0F3400004D045
:1007800018B100212046FFF733FE21680869496946
:1007900010F0030FC1F3001104D019B1012120465C
:1007A000FFF726FE20688169426911F0010FC2F34C
:1007B00000234269C2F3C03205D023B11AB1E16B04
:1007C00041F00101E1638169C1F34003416942697C
:1007D000C1F34021C2F3C0322BB121B11AB1E16B98
:1007E00041F00201E16381694269C1F38001C2F312
:1007F00080234269C2F3C03229B123B11AB1E16B3F
:1008000041F00401E163816911F0700F0ED0002105
:1008100042694369C2F3C022C3F3C03341B127E048
:10082000012195E7012298E701209BE70121EFE7ED
:10083000F2B1EBB1816901F07001402929D006DCE9
:10084000102909D020290BD030290DD11DE05029C5
:1008500023D0602908D124E0E16B41F0080102E0D7
:10086000E16B41F01001E163816921F07001816168
:10087000E06B002808D0216804204860012084F83B
:1008800038002046FFF756FF10BDE16B41F0200114
:10089000E9E7E16B41F04001E5E7E16B41F0800100
:1008A000E1E7E16B41F48071DDE700000300000443
:1008B00000030008000003102DE9F041040004D0FB
:1008C00094F83800002518B107E00120BDE8F08158
:1008D00084F83950204600F093F8022084F838005C
:1008E0002068016821F0020101602068016841F080
:1008F0000101016000F0D6FC0746032605E000BFB9
:1009000000F0D0FCC01B0A2863D820684068C007EC
:10091000F6D020684168C90768D0A169012901683B
:100920003FD021F080010160E06901282068016862
:100930003AD021F040010160206A01282068016856
:1009400035D021F020010160606A0128206801682B
:1009500030D021F010010160A06A012820680168F0
:100960002BD021F008010160E06A012820680168AD
:1009700026D021F004010160D4E902010843D4E942
:100980000412114308436168491E08432168C86185
:100990002068016821F00101016000F083FC074636
:1009A0001CE041F08001BEE741F04001C3E741F0A7
:1009B0002001C8E741F01001CDE741F00801D2E77E
:1009C00041F00401D7E700BF00F06CFCC01B0A280F
:1009D00004D904F8386F0320657077E72068406811
:1009E000C007F1D120684068C00703D0042084F814
:1009F00038006AE7E563012084F83800002065E7E5
:100A0000F0B5324B0768DFF8C0C018680322022433
:100A100009252F490026401C87B0674521D1186061
:100A2000012807D1086840F000700860086800F0ED
:100A3000007005908DE85400CDE9032569462548EE
:100A400000F044FB00220521132000F0C5FC132018
:100A500000F0B6FC00220521142000F0BDFC14209B
:100A60002EE0DFF874C067452CD10F6847F080672F
:100A70000F600F68012807F080670597186007D19D
:100A8000086840F000700860086800F00070059089
:100A90004FF440508DE85100CDE9032569460F48D9
:100AA00000F014FB002211463F2000F095FC3F208F
:100AB00000F086FC00221146402000F08DFC402012
:100AC00000F07EFC07B0F0BD006400408000002014
:100AD00040380240000C0240006800400004024020
:100AE00010B590F83820012A01D0122A39D190F897
:100AF0003920012A35D0012280F8392090F8382099
:100B0000122A29D05FF0220280F838200022C26326
:100B100003685C6944F480745C6103685C6944F454
:100B200000745C6103685C6944F480645C61036820
:100B30005C6944F400645C6103685C6944F40044EB
:100B40005C6180F8392000680029416906D041F0D5
:100B500010014161002010BD3222D5E741F00201B1
:100B6000F7E7022010BD000070B50646406B006834
:100B7000A0F50071013905D0012903D0022901D067
:100B800003291FD1164C401EC0B22070154D00EB3A
:100B9000400005EB0010816A4A1C3229826231460E
:100BA00002D803F098F801E003F070F800F07AFB47
:100BB000217801EB410105EB0111C86231460A4879
:100BC00003F064F809480068416941F0020141619D
:100BD00007480068416941F00201416170BD0000B1
:100BE000840000200C4500204C4600208C4400204E
:100BF000CC4400202DE9F05F0E4601680446886869
:100C0000400105D48868000102D48868C00068D516
:100C100094F8390001280ED0012784F8397094F82F
:100C2000380022280AD0122084F838008868400151
:100C300006D500250AE00220BDE8F09F3220F3E748
:100C40008868000101D5012500E002254FF4C0703D
:100C500000EB05100A5802F001020A50216B8A6865
:100C6000F2B3D4F800C05CF800301343CA68496896
:100C700042EAC1010B434CF80030216B0A7C02F0C0
:100C80000F020A614FF4C271226801EB051153583B
:100C900023F00F03535022685358D4F830C0DCF8C7
:100CA00010C043EA0C035350216B0A7DCB7D42EA0E
:100CB00003628B7D497D1B0443EA01210A434FF403
:100CC000C473216803EB0513CA50216B0A7ECB7EE7
:100CD00042EA03628B7E497E1B0443EA012101E064
:100CE00016E04FE00A434FF4C673216803EB051387
:100CF000CA5021680A5842F001020A5000F0D2FAA4
:100D000081464FF00008DFF888A0DFF888B019E0CE
:100D100022681358D1F80CC0098843EA0C0343EA4F
:100D200041511150A9E7701C0CD02EB100F0BAFA55
:100D3000A0EB0900B04205D9032084F8380084F8FC
:100D4000398079E795B12068012D816813D0124868
:100D500088430028E7D194F8380032280ED084F870
:100D6000387000BF84F83980002065E7206881680A
:100D70002AEA0100EDE72BEA0100EAE7222084F8E5
:100D80003800EFE7042084F83800012054E7000021
:100D9000030000040003000800000310704790F8EF
:100DA0003510022903D080214165012070470521BB
:100DB00080F835100068016821F001010160002011
:100DC000704700002DE9F84304464FF00008CDF8C5
:100DD000008064484FF41651A56D0068B0FBF1F730
:100DE0002E6894F85C10082000FA01F131420FD00F
:100DF00021680A6852070BD50A6822F004020A60CB
:100E000094F85C108840A860606D40F00100606557
:100E100094F85C1054488840304208D021684969F1
:100E2000090604D5A860606D40F0020060654E4878
:100E300094F85C10C01C8840304208D021680968D2
:100E4000890704D5A860606D40F00400606594F8DF
:100E50005C1010208840304218D0216809680907CA
:100E600014D5A86020680168490304D50068000310
:100E700008D5A16C07E00168C90503D4016821F019
:100E800008010160216C09B12046884794F85C1084
:100E90002020884030424FF0010631D02168096897
:100EA000C9062DD5A86094F835000528206801688A
:100EB00006D0490347D5006800031DD4616C1CE0CF
:100EC00021F0160101602068416921F08001416133
:100ED000206C08B9A06C20B12068016821F00801DD
:100EE000016094F85C103F208840A86084F834804A
:100EF00084F83560216D1FE0E16B09B12046884719
:100F0000606D00282BD0606DC00714D0052084F8D8
:100F100035002068016821F0010101600098401C43
:100F20000090B84203D820680068C007F6D184F862
:100F3000348084F83560E16C002910D001B020467F
:100F4000BDE8F04308470168C905D5D4016821F020
:100F50001001016084F8348084F83560CCE7BDE886
:100F6000F883000004000020010080002DE9F0411A
:100F7000044600F097F906465CB1002584F8345029
:100F8000022084F835002068016821F00101016029
:100F90000DE00120BDE8F08100F084F9801B0528F8
:100FA00005D920206065032084F83500F2E7206829
:100FB0000068C007F0D1226811681F480140D4E9D9
:100FC00001031843D4E903363343184363691843D4
:100FD000A3691843E3691843236A18430843616A05
:100FE000042903D1D4E90B13194308431060206886
:100FF0004069666A20F0070130460E430127042845
:101000000AD1A06A06432046FFF7E2FA20B1402049
:10101000606584F83570BCE7206846612046FFF7BC
:10102000C3FA94F85C203F2191408160656584F8A3
:1010300035700020AEE700003F8010F02DE9F04150
:101040000446866D90F83400002501280DD001205B
:1010500084F8340094F835700020012F07D084F80C
:10106000340002252846BDE8F0810220FBE7022774
:1010700084F8357060652046FFF7D4FA94F85C1068
:101080003F208840B0602068016841F0160101608F
:101090002068416941F080014161206C20B12068E5
:1010A000016841F0080101602068016841F0010118
:1010B0000160D7E731B500F0F5F8044600F0F2F82A
:1010C0000099001B8842F9D338BD00002DE9F84F84
:1010D000DFF890B100224FF001084FF0030A4FF003
:1010E0000F090BF1040E00BF0B6808FA02F423404D
:1010F000A3426ED14D68022D01D0122D0ED1D5081C
:1011000000EB850CDCF820505607F70E09FA07F6BD
:10111000B5430E69BE402E43CCF8206006685500EA
:101120000F790AFA05FC07F0030726EA0C06AF4020
:10113000374307604E68012E05D0022E03D0112ED2
:1011400001D0122E0ED18768CE6827EA0C07AE4078
:101150003E4386604668A6430C79C4F3001494406D
:1011600034434460C4688E6824EA0C04AE402643CD
:10117000C6604C68E4006FD53B4C256845F480455B
:101180002560246822F0030504F480440094374C61
:101190002E19D6F8084895072F0F09FA07F5AC4322
:1011A000334DA84201D100252EE0324DA84201D195
:1011B000012529E0304DA84201D1022524E02F4D20
:1011C000A84201D103251FE02D4DA84202D10425DC
:1011D0001AE041E02B4DA84201D1052514E02A4D2B
:1011E000A84201D106250FE0284DA84201D10725CC
:1011F0000AE0274DA84201D1082505E0254DA84267
:1012000001D1092500E00A25BD402543C6F808584C
:10121000DBF800405D464E689C43F60300D51C4356
:101220002C60DEF8004075464E689C43B60300D53E
:101230001C432C600B4D08352C684E689C43F6020D
:1012400000D51C432C60074D0C352C684E689C4320
:10125000B60200D51C432C60521C102AFFF444AF88
:10126000BDE8F88F003C01404438024000300140A6
:10127000000002400004024000080240000C02404E
:10128000001002400014024000180240001C0240FE
:1012900000200240002402400AB181617047090425
:1012A000FBE70000014800687047000000000020D4
:1012B00002480168491C01607047000000000020DE
:1012C0000B4810B5016841F400710160016841F4F8
:1012D00080610160016841F480710160032000F0C9
:1012E0009BF8002000F006F800F03EF8002010BD4A
:1012F000003C024010B5014688B00022362000F0C4
:101300006BF8362000F05CF813480024016841F0C7
:1013100010010160006805A900F010000690684601
:1013200000F090F900F0B4F90C494000B0FBF1F185
:101330000C480B4A491E026040F2E732C0E9032420
:10134000C0E9011400F051FC10B1012008B010BD3B
:10135000044800F066FCF9E74038024040420F00C4
:1013600000100040F843002010B5032000F054F8AE
:10137000002211466FF00B0000F02EF800221146FB
:101380006FF00A0000F028F8002211466FF0090003
:1013900000F022F800221146501F00F01DF8002234
:1013A0001146101F00F018F800220F21901E00F0C7
:1013B00013F800220F21BDE81040501E00F00CB8B9
:1013C00000F01F02012191404009800000F1E0205F
:1013D000C0F8001170470000F0B40E4B1B680C46BB
:1013E000C3F30223C3F10705042D00D90425191DF9
:1013F000072901D2002300E0DB1E012606FA05F1D1
:10140000491E214099409E40761E16403143F0BC53
:1014100001F054BC0CED00E0064900F0070208683A
:101420004FF6FF03184040EA0220034A10430860C9
:10143000704700000CED00E00000FA052DE9F843CC
:101440001E48016841F0805101600068012600F0EB
:1014500080500090300490FAA0F0194FB0FA80F05C
:1014600047F82060FFF71EFF05464FF47A78154CC9
:1014700005E000BFFFF716FF401B404515D8606828
:10148000C003F7D54FF4003090FAA0F0B0FA80F026
:1014900047F82060FFF706FF0546464608E000BF14
:1014A000FFF700FF401BB04202D90320BDE8F883DC
:1014B00060688003F4D50020F8E70000403802405F
:1014C00000000E42007000402DE9F047DFF8649103
:1014D00005460F46D9F8000000F00F01F8B280462B
:1014E000B94208D2014689F80010D9F8000000F08E
:1014F0000F00B84274D128784F4C800705D520687A
:10150000A96820F0F000084320602878C00759D06F
:1015100049496868083901281AD002281BD00328D5
:1015200019D00968890700295ADA216821F00301D6
:1015300001432160FFF7B6FE6968064641F2883034
:10154000012911D002291DD00329824627D035E078
:1015500009688903E7E709688901E4E7FFF7A2FE64
:10156000811B514501D926E082462068C0F38100E5
:101570000128F3D126E000BFFFF794FE811B5145FF
:1015800001D918E082462068C0F381000228F3D117
:1015900018E000BFFFF786FE811B51450BD820687D
:1015A000C0F381000328F5D10CE000BFFFF77AFEFD
:1015B000811B514502D90320BDE8F087206810F057
:1015C0000C0FF3D1D9F80010484601F00F01B942D1
:1015D00008D980F80080006800F00F00B84201D000
:1015E0000120E9E72878400705D52068E96820F45C
:1015F000E050084320602878000706D52068296954
:1016000020F4604040EAC100206000F071F82168D9
:10161000F02292FAA2F201F0F001B2FA82F2D14085
:10162000064A515CC840064908600020FFF762FE88
:101630000020C1E7003C024008380240745A00080C
:10164000040000200F2202600C4A136803F0030319
:101650004360136803F0F0038360136803F4E053FE
:10166000C36012684FF4E05303EAD20202610448F7
:10167000006800F00F000860704700000838024062
:10168000003C024001480068704700000400002050
:1016900008480949006809684FF4E05292FAA2F23A
:1016A00001F4E051B2FA82F2D140044A515CC840E0
:1016B000704700000400002008380240745A0008F7
:1016C00008480949006809684FF4604292FAA2F29A
:1016D00001F46041B2FA82F2D140044A515CC84040
:1016E000704700000400002008380240745A0008C7
:1016F00030B51948006810F00C01184812D0184C89
:1017000004290ED008290DD11349091F0A6802F0D7
:101710003F030A68550247F6C07204D5B4FBF3F0E4
:1017200003E0204630BDB0FBF3F00B6809681340BE
:1017300092FAA2F2B2FA82F2D34058434FF4403206
:1017400092FAA2F201F44031B2FA82F2D140491C7D
:101750004900B0FBF1F030BD083802400024F4002D
:10176000001BB7002DE9F84F0446DFF8CC82007863
:10177000A8F1040BC007ABF1040537D0D8F800106E
:101780004046C1F38101012908D00068C0F38100FF
:1017900002280AD1DBF80000400206D52868800341
:1017A00024D56068002878D020E0A3492079891FDB
:1017B0000870606868B1FFF775FD064605E000BF78
:1017C000FFF770FD801B642868D828688003F7D570
:1017D0000CE0FFF767FD064605E000BFFFF762FD7E
:1017E000801B6428F0D828688003F7D42078934EB3
:1017F00080074FF0010A4FF0000742D5D8F80010DB
:10180000404611F00C0F08D00068C0F38100022898
:101810000AD1DBF80000400206D42868800714D5FE
:10182000E068012839D110E0E068D8B1C6F800A01E
:10183000FFF738FD814605E0FFF734FDA0EB090016
:101840000228C1D828688007F6D52868F82292FABD
:10185000A2F22169B2FA82F220F0F8009140084326
:1018600028600EE03760FFF71DFD814606E000BFEF
:10187000FFF718FDA0EB090002280FD828688007A1
:10188000F6D42078000728D56D486169A1B1C0F869
:1018900000A0FFF707FD814608E0CAE079E000BF3D
:1018A000FFF700FDA0EB0900022872D862486C30F7
:1018B00000688007F4D510E00760FFF7F3FC81466D
:1018C00006E000BFFFF7EEFCA0EB0900022860D89D
:1018D00059486C3000688007F4D42078400749D517
:1018E00055483830016841F080510160006800F0CF
:1018F000805000905348016841F480710160FFF707
:10190000D1FC814606E000BFFFF7CCFCA0EB09004C
:1019100002283ED84B480068C005F5D5DFF818917D
:10192000207A09F1680989F80000A06888B1FFF7FA
:10193000B9FC009008E000BFFFF7B4FC0099411A21
:1019400041F2883081426CD8D9F800008007F3D585
:1019500010E0FFF7A7FC009008E000BFFFF7A2FC33
:101960000099411A41F2883081425AD8D9F80000D2
:101970008007F3D4A069E0B3D8F80010C1F3810167
:10198000022956D00228376604D0FFF78BFC0446A4
:101990004AE046E0FFF786FC074604E0FFF782FCDA
:1019A000C01B02283DD828688001F7D4D4E907017C
:1019B000084347F6C07292FAA2F2616AB2FA82F262
:1019C0009140A26A4FF0FF3303EB52024FF44033D1
:1019D00093FAA3F3B3FA83F39A40114308434FF009
:1019E000706292FAA2F2E16AB2FA82F2914008437E
:1019F00000E01CE0CBF80000C6F860A0FFF752FC46
:101A0000044604E0FFF74EFC001B022809D82868B2
:101A10008001F7D50BE000BFFFF744FC001B022854
:101A200002D90320BDE8F88F28688001F4D4002093
:101A3000F8E70120F6E700000838024000004742BE
:101A4000800E47420070004070B5040005D00025AC
:101A5000A56294F8510010B106E0012070BD84F831
:101A60005050204600F030F8022084F851002068E1
:101A7000016821F040010160D4E901010843D4E983
:101A800003121143084361690843218B01F400717B
:101A90000843E1690843216A0843A16A08432168B1
:101AA0000860A069042101EA1040616A08432168C6
:101AB00048602068C16921F40061C1616565012049
:101AC00084F85100002070BD00B500680E4987B051
:101AD000884217D10D480021026842F4801202604A
:101AE000006800F4801005904FF4607000900220B0
:101AF000CDE90101032003900520049069460448C4
:101B0000FFF7E4FA07B000BD00500140443802403E
:101B1000001402404FF0E0210428086903D020F0AF
:101B200004000861704740F00400FAE710B5401E59
:101B3000B0F1807F01D3012010BD4FF0E02460613F
:101B40000F21601701F0BAF80020A0610720206182
:101B5000002010BD7047704730B590F83820012A3A
:101B600019D0012200F8382F02234370D1E9003444
:101B70002343D1E902452C4323430C6923434C6999
:101B8000896923430B4350F8381C4B644270002191
:101B90000170084630BD022030BD30B590F83820C5
:101BA000012A20D0012280F83820022380F8393021
:101BB00003685C6824F070045C6003685C680D680E
:101BC0002C435C6003689C6824F080049C6003687C
:101BD0009C6849680C439C6080F83920002180F89B
:101BE0003810084630BD022030BD10B5040003D0C7
:101BF00094F8390010B107E0012010BD002084F8EE
:101C00003800204600F00CF8022084F83900211D2D
:101C1000206801F093F9012084F83900002010BDFC
:101C200070470168CA6842F00102CA600068016832
:101C300041F00101016000207047704770B5044613
:101C4000006801694FF00005C943890715D4C168D0
:101C5000C943890711D4E91E01610120207620685B
:101C600080698007204602D0FFF7E7FF04E000F01C
:101C70001DF9204600F0ECF9257620680169C9437A
:101C8000490717D4C168C943490713D46FF0040149
:101C90000161022020762068806910F4407F204690
:101CA00002D0FFF7CAFF04E000F000F9204600F080
:101CB000CFF9257620680169C943090716D4C168A0
:101CC000C943090712D46FF008010161042020768E
:101CD0002068C0698007204602D0FFF7AEFF04E00D
:101CE00000F0E4F8204600F0B3F925762068016999
:101CF000C943C90617D4C168C943C90613D46FF0D4
:101D000010010161082020762068C06910F4407F2E
:101D1000204602D0FFF791FF04E000F0C7F820460C
:101D200000F096F9257620680169C943C90708D1F2
:101D3000C168C943C90704D1891E0161204600F06A
:101D4000A5F920680169C943090609D4C168C943D6
:101D5000090605D46FF0800101612046FFF7FAFE05
:101D600020680169C943490609D4C168C9434906C5
:101D700005D46FF040010161204600F091F9206820
:101D80000169C94389060BD4C168C943890607D4D0
:101D90006FF0200101612046BDE87040FFF7DBBE17
:101DA00070BD0000F0B50168002402250126354809
:101DB00085B0B1F1804F08D0334A91421CD1302117
:101DC0000091CDE9015469463FE040F60841009199
:101DD000CDE90154CDE903466946FFF777F94FF4A1
:101DE00000400090CDE90154CDE9034669462748FB
:101DF000FFF76CF905B0F0BD254A914211D14FF4BF
:101E000040710091CDE901546946CDE90345FFF7E2
:101E10005DF94FF440500090CDE9015469461D48EA
:101E200013E01D4A1D481E4F914211D10096CDE985
:101E300001546946CDE90345FFF748F94FF4E050F6
:101E40000090CDE9015469463846CDE90345CFE716
:101E5000144A914208D1E4210091CDE901540321B3
:101E6000CDE903416946C3E70F488142C2D14FF42F
:101E700010700090CDE901540920CDE90340694676
:101E80003846B5E70004024000040040000002406C
:101E900000080040000C0240000C004000200240FE
:101EA000001C02400004014000180040704770B55B
:101EB000044690F838000D4601280DD0012684F81C
:101EC0003860022084F8390042B1042A18D0082A68
:101ED0002AD00C2A4DD139E0022070BD206801F0D3
:101EE00099F82068816941F0080181612068816961
:101EF00021F004018161206881692A69114311E0A0
:101F0000206801F0B3F82068816941F400618161C3
:101F10002068816921F480618161206881692A6972
:101F200041EA0221816124E0206801F0D1F82068B3
:101F3000C16941F00801C1612068C16921F0040153
:101F4000C1612068C1692A69114311E0206801F06C
:101F5000EFF82068C16941F40061C1612068C1697E
:101F600021F48061C1612068C1692A6941EA0221C6
:101F7000C16184F83960002084F8380070BD10B564
:101F8000040003D094F8390010B107E0012010BD1F
:101F9000002084F83800204600F00CF8022084F875
:101FA0003900211D206800F0C9FF012084F83900A4
:101FB000002010BD08B501681F48B1F1804F0BD05B
:101FC0001E4A914210D1016841F00201016000688F
:101FD00000F00200009008BD016841F001010160BD
:101FE000006800F00100F5E7154A914207D1016849
:101FF00041F004010160006800F00400EAE7114AC2
:10200000914207D1016841F008010160006800F0C9
:102010000800DFE70C4A914202D10748001DD2E7D1
:102020000A4A9142D7D1016841F04001016000683D
:1020300000F04000CEE700004038024000040040BD
:1020400000080040000C004000040140001800405F
:102050007047000010B504460068012200F0CEFF72
:1020600008492068884202D00749884203D1416C60
:1020700041F4004141642068016841F001010160C0
:10208000002010BD00000140000401400068034929
:10209000884201D1FFF70CB97047000000100040E2
:1020A0007047704770B5026804461068D16853697C
:1020B00010F00F0F50D003F0010501F49076354376
:1020C0005DD0C20705D0CA0503D5E26B42F001021C
:1020D000E263420705D5DA0703D0E26B42F0020261
:1020E000E263820705D5DA0703D0E26B42F004020F
:1020F000E263020705D5DA0703D0E26B42F008027B
:10210000E263E26B002A33D0800604D5880602D54C
:10211000204601F09CF820684069E16BC0F3801014
:10212000090700D428B3204601F07AF820684169F5
:1021300049061AD5416921F040014161606BA0B1A7
:102140001B490165606BFEF72AFE002810D0606B0A
:10215000016DBDE870400847830610D58B060ED58B
:102160002046BDE8704001F072B82046FFF799FFA5
:1021700070BD2046FFF795FF0020E06370BD0306A9
:1021800006D50B0604D52046BDE8704001F0FCB929
:102190004006F3D54806F1D5D168204621F040012C
:1021A000D160202184F8391000F00CFA70BD0000D5
:1021B0008131000870B5040004D094F8390000257E
:1021C00010B106E0012070BD84F83850204600F0C0
:1021D00023F8242084F839002068C16821F40051D4
:1021E000C160204601F07AF82068016921F490412D
:1021F00001612068416921F02A0141612068C168BC
:1022000041F40051C160E563202084F8390084F86E
:102210003A00002070BD00002DE9F04F0546D0F8CF
:1022200000C00220DFF81C820024DFF81CA201217C
:10223000032207238706460287B0C4453BD1DAF85C
:10224000008048F01008CAF80080DAF800C00DF1EC
:1022500004080CF0100CCDF814C04FF0C00CCDF8F1
:1022600000C088E80F0069467848FEF72FFFDFF8C6
:10227000E48177494046C8F80010C0E90174C0E91C
:102280000346C8F81440C8F81840C8F81C40C8F8FD
:102290002040C8F82440FEF769FE08B1FEF7D7F9E0
:1022A000C5F83480002205212520C8F83850FFF7F2
:1022B00093F8252046E0DFF8A081DFF88C91DFF865
:1022C0009CB1A9F10409C44541D1D9F8008048F472
:1022D0000038C9F80080D9F800C00DF104080CF4EA
:1022E000003CCDF814C04FF0600CCDF800C088E879
:1022F0000F0069465846FEF7E9FEDFF85881584955
:1023000008F160084046C8F80010C0E90174C0E94F
:102310000346C8F81440C8F81840C8F81C40C8F86C
:102320002040C8F82440FEF721FE08B1FEF78FF9DF
:10233000C5F83480002211462620C8F83850FFF72F
:102340004BF82620FFF73CF807B0BDE8F08FDFF828
:102350001481C4453ED1D9F8008048F48028C9F8DA
:102360000080D9F800C00DF104080CF4802CCDF8E1
:1023700014C04FF4407CCDF800C088E80F006946D7
:102380005846FEF7A3FEDFF8CC80354908F1C008B7
:1023900060394046C8F80010C0E90174C0E903463E
:1023A000C8F81440C8F81840C8F81C40C8F82040C5
:1023B000C8F82440FEF7DAFD08B1FEF748F9C5F881
:1023C0003480002211462720C8F83850FFF704F85F
:1023D0002720B7E7244B9C45B6D1DAF8007047F0C8
:1023E0002007CAF80070DAF8003001AF03F02003CC
:1023F00005934FF48443009387E807000820049076
:1024000069461A48FEF762FE1148194F18383860BD
:102410008005C7E90104C7E903467C61BC61FC6132
:102420003C6238467C62FEF7A1FD08B1FEF70FF969
:102430006F63002205214720BD63FEF7CDFF4720D3
:1024400080E70000001001404438024000040240D0
:10245000406402401C40002000440040000C024048
:10246000886002400048004000140140001802400B
:102470003C41002070B5044690F83A00202839D13C
:10248000A9B3A2B394F83800012833D0012084F80E
:102490003800A162A2850025E563222084F83A0075
:1024A000636B1548D863636B14481864636B1448F6
:1024B000D864606B134605650846666B2168024662
:1024C0003046091DFEF7BAFD2068C16841F48071ED
:1024D000C1602068416941F00101416120684169A2
:1024E00041F04001416184F83850002070BDFFE7A1
:1024F0000120FBE70220F9E7DB3100081732000872
:102500009131000801F078BD70472DE9F843044689
:1025100090F839001E4617460D46202850D135B395
:102520002FB394F8380001284AD0012084F83800ED
:102530004FF00008C4F83C80212084F83900FEF7F1
:10254000B1FEA784E78481464FF48057E08C4B4668
:10255000401EE084A0684FF00002B8424FF08001B6
:102560002046009611D101F040F800BB02E00120A6
:10257000BDE8F8832888C0F308012068416020691D
:1025800008B16D1C08E0AD1C06E001F02EF870B932
:10259000216815F8010B4860E08C0028D6D14B4625
:1025A000002240212046009601F01FF808B10320C8
:1025B000DEE7202084F8390084F838800020D7E74F
:1025C0000220D5E77047FEE70F4810B50D490160BE
:1025D0000521416000214FF400328160C0E90312FF
:1025E0005201C0E905210122C0E90721416281624F
:1025F000C162FEF761F9002803D0BDE81040FEF784
:1026000026B810BD006400408C440020104810B56E
:102610000E4901600521416000214FF04072C0E980
:1026200002124FF4003202615201C0E90521012279
:10263000C0E9072141628162C162FEF73DF90028CD
:1026400003D0BDE81040FEF702B810BD006800409E
:10265000CC440020194808B5016841F480010160AC
:10266000016801F480010091016841F400110160EA
:102670000068002200F40010009005210C20FEF7F5
:10268000ABFE0C20FEF79CFE002205211020FEF779
:10269000A3FE1020FEF794FE002205213920FEF74C
:1026A0009BFE3920FEF78CFE002205213A20FEF722
:1026B00093FEBDE808403A20FEF782BE3038024063
:1026C00000B585B0142206496846FDF7EBFD0021F0
:1026D000684601F02FFD0349886105B000BD000088
:1026E000845A0008640000202DE9F0474F4886B066
:1026F0000024016841F010010160016801F010013F
:102700000591016841F002010160016801F00201D8
:102710000591016841F040010160016801F040014C
:102720000591016841F008010160016801F00801AC
:102730000591016841F001010160016801F00101AA
:102740000591016841F480710160016801F48071B4
:102750000591016841F080010160016801F080018C
:102760000591016841F0200101600068DFF8C08038
:1027700000F020000590002288214046FEF78CFDE5
:10278000012204214046FEF787FDDFF8A8904FF4B0
:102790000056002231464846FEF77EFDDFF898A03D
:1027A00044F24007002239465046FEF775FD8C2062
:1027B00000900125CDE90154694640460394FEF797
:1027C00085FC022000901D48CDE901056946404680
:1027D000FEF77CFC0096CDE9015469464846039417
:1027E000FEF774FC04208DE8310069461448FEF7BA
:1027F0006DFC8020CDE90004694612480294FEF782
:1028000065FC0097CDE90154694650460394FEF7F4
:102810005DFC0D2000900C48CDE9010469460B4891
:10282000FEF754FC06B0BDE8F087000030380240E7
:102830000010024000180240001402400000211065
:1028400000040240000C0240000011100000024091
:10285000104810B50E4901604FF4827141600021AB
:102860008160C1604FF400720161C0E9051230223D
:10287000C0E90721416281620A21C162FFF7E4F8E1
:10288000002803D0BDE81040FDF7E1BE10BD0000F8
:10289000005001403444002010B5174888B0154955
:1028A000016059210024C0E9011440F6C311C0E9B8
:1028B0000314FFF764FB08B1FDF7C9FE6020009028
:1028C0004FF47A70CDE90104002269460A48049465
:1028D000FFF7EDFA08B1FDF7BAFE04226946064893
:1028E000FFF7E5FA08B1FDF7B2FE0348FFF75AFA21
:1028F00008B010BD00180040E03E002010B521488F
:102900008AB04FF080410024C0E900148460C460A4
:102910000461FFF734FB08B1FDF799FE079407A99E
:1029200018480894FFF739F908B1FDF790FE6020C8
:10293000CDE9000402940022694612480494FFF78E
:10294000B6FA08B1FDF783FE042269460D48FFF789
:10295000AEFA08B1FDF77BFE082269460948FFF789
:10296000A6FA08B1FDF773FE0C2269460548FFF789
:102970009EFA08B1FDF76BFE0248FFF713FA0AB0A2
:1029800010BD0000B43D002010B51A488AB01849A7
:102990000160B3210024C0E90114C4600461FFF7A1
:1029A000EEFA08B1FDF753FE079407A91148089401
:1029B000FFF7F3F808B1FDF74AFE6020CDE9000407
:1029C0000294002269460B480494FFF770FA08B19C
:1029D000FDF73DFE042269460648FFF768FA08B194
:1029E000FDF735FE0348FFF7DDF90AB010BD000022
:1029F00000040040F03D002010B521488AB01F4976
:102A00000024C0E900148460C4600461FFF7B7FAD1
:102A100008B1FDF71CFE079407A919480894FFF7B1
:102A2000BCF808B1FDF713FE6020CDE90004029464
:102A30000022694612480494FFF739FA08B1FDF7FD
:102A400006FE042269460E48FFF731FA08B1FDF789
:102A5000FEFD082269460A48FFF729FA08B1FDF78A
:102A6000F6FD0C2269460648FFF721FA08B1FDF78A
:102A7000EEFD0348FFF796F90AB010BD00080040CC
:102A80002C3E002010B524488AB02249016059210B
:102A90000024C0E901144FF4FA61C0E90314FFF700
:102AA0006EFA08B1FDF7D3FD079407A91A480894F8
:102AB000FFF773F808B1FDF7CAFD602000904FF4EE
:102AC0007A70CDE901040022694613480494FFF7A7
:102AD000EEF908B1FDF7BBFD042269460E48FFF789
:102AE000E6F908B1FDF7B3FD082269460A480194EA
:102AF000FFF7DDF908B1FDF7AAFD0C22694606488B
:102B0000FFF7D5F908B1FDF7A2FD0348FFF74AF931
:102B10000AB010BD000C0040683E002010B52B48E4
:102B200090B029490024C0E900148460C4600461A5
:102B30004461FFF724FA08B1FDF789FD0E940EA950
:102B400022480F94FFF729F808B1FDF780FD07949C
:102B5000089409944FF400500A94CDE90B4007A95A
:102B60001A480D94FEF7F8FF08B1FDF770FD6020DC
:102B7000CDE900040294039404940594002269466C
:102B800012480694FFF793F908B1FDF760FD04229F
:102B900069460E48FFF78BF908B1FDF758FD08228A
:102BA00069460A48FFF783F908B1FDF750FD0C228A
:102BB00069460648FFF77BF908B1FDF748FD034871
:102BC000FFF7F0F810B010BD00040140A43E002053
:102BD0000D4810B50B4901600C49416000214FF4CC
:102BE00080628160C0E903120C22C0E90521C16145
:102BF000FFF7E0FA002803D0BDE81040FDF727BD3D
:102C000010BD0000001001401C3F0020A086010004
:102C10000C4810B50A4901604FF4E13141600021D0
:102C200081600C22C160C0E904128161C161FFF7BB
:102C3000C1FA002803D0BDE81040FDF708BD10BD63
:102C4000004400405C3F00200C4810B50A49016078
:102C50004FF4E1314160002181600C22C160C0E984
:102C600004128161C161FFF7A5FA002803D0BDE815
:102C70001040FDF7ECBC10BD004800409C3F002018
:102C80000C4810B50A4901604FF4E1314160002160
:102C900081600C22C160C0E904128161C161FFF74B
:102CA00089FA002803D0BDE81040FDF7D0BC10BD64
:102CB00000140140DC3F0020FEE770470907090EC1
:102CC000002806DA00F00F0000F1E02080F8141D63
:102CD000704700F1E02080F80014704730B4034CD6
:102CE0004466034C846630BC01F022BB31430008CB
:102CF0003F4300082DED028B8CB000213F48FFF7C9
:102D0000A9F904213D48FFF7A5F908213B48FFF741
:102D1000A1F90C213948FFF79DF9394801F0C4F9B0
:102D2000384801F0C1F900213548FDF7D9FE0021EE
:102D30003448FDF7D5FE344D9FED348ADFED348AFB
:102D400000244FF4965643F6A40700BF04EBC400DA
:102D500000EB400005EB8000B0EE481AF0EE680A88
:102D6000B7EE080A33463A460321FFF7B7FF641C63
:102D7000042CEBDB21494FF47A700A6850630A682F
:102D800090630968C86308646420FEF793F900F053
:102D9000D3FF01F0A5FC40F6B8371E4EFEF782FACD
:102DA00004460146002001F06DF9814621460220CB
:102DB00001F068F980460146484601F0C3FC01F085
:102DC0001BF801F0C1FC684601F04EFC706912A5C9
:102DD000201AB84209D328467461FDF787FA82B2F7
:102DE000642329461248FFF790FB4246494668464D
:102DF00001F0E6FD0A2001F087F9CFE7683E0020E8
:102E00008C440020CC440020D44800200000000066
:102E1000CDCCCC3D64000020484541525442454150
:102E200054205541525432205458204F4B0D0A0023
:102E30005C3F002001F074B930B5264893B00025FE
:102E4000016841F080510160006800F080501190ED
:102E50002148016841F4404101600068022400F407
:102E6000404011900120009001908005CDE906407E
:102E700006200890B420CDE9090404200B90684690
:102E8000FEF770FC00B1FEE7FEF7D8FA00B1FEE7EE
:102E90000CA90F2081E831004FF4A0500F904FF49F
:102EA0008050109005210CA8FEF70EFB00B1FEE744
:102EB000FEF7E8FB4FF47A71B0FBF1F0FEF736FE57
:102EC0000420FEF727FE00220F21501EFEF784FA91
:102ED00013B030BD40380240007000401048016817
:102EE00041F4700101600F48016841F00101016087
:102EF0000C4A00210832116002680B4B1A40026034
:102F0000031D0A4A1A60026822F480220260054802
:102F10000C30016002495806803908607047000093
:102F200088ED00E000380240FFFFF6FE103000247C
:102F30000148FEF783BE0000F8430020F0B50268A8
:102F4000234B244D244E254F254C4FF0804C984266
:102F500009D0604507D0A84205D0B04203D0B8429E
:102F600001D0A04204D122F0700E4A6842EA0E025B
:102F700098421BD0604519D0A84217D0B04215D056
:102F8000B84213D0A04211D0164DA8420ED0164D13
:102F9000A8420BD0154DA84208D0154DA84205D027
:102FA000144DA84202D0144DA84203D122F440751A
:102FB000CA682A4302608A68C2620A6882629842CA
:102FC00001D0A04201D10969016301214161F0BD35
:102FD000000001400004004000080040000C0040D8
:102FE000000401400040014000440140004801400D
:102FF00000180040001C00400020004010B50123D4
:10300000046A8B409C430462036A8A401343036250
:1030100010BD000030B5026A22F001020262026AAD
:10302000436884690D6824F07304254322F0020488
:103030008A6822430B4CA04202D00B4CA0420BD119
:1030400022F00804CA6823F4407322434C6922F03A
:1030500004021C438B6923434360856149684163D3
:10306000026230BD000001400004014030B5026A38
:1030700022F010020262026A436884690D6824F437
:10308000E64444EA05248D6822F0200242EA051253
:103090000D4DA84202D00D4DA8420ED1CD6822F0B0
:1030A000800242EA05124D6923F4406343EA850336
:1030B0008D6922F0400243EA8503436084614968D8
:1030C0008163026230BD0000000001400004014045
:1030D00030B5026A22F480720262036A4268C469EF
:1030E00023F4007324F073050C682C438D6843EAC5
:1030F00005230D4DA84202D00C4DA8420ED1CD683B
:1031000023F4006343EA05234D6922F4405242EA66
:1031100005128D6923F4806342EA05124260C4619E
:103120004968C163036230BD0000014000040140F2
:1031300030B5026A22F480520262046A4268C369AE
:103140000D6823F4E64343EA05238D6824F4005414
:1031500044EA0534084DA84202D0084DA84204D1E3
:103160004D6922F4804242EA85124260C361496897
:103170000164046230BD0000000001400004014011
:1031800010B5806B0021C185C184FEF78AFF10BD98
:1031900070B5846B2068406994F83910C0F3C01092
:1031A0000025212904D118B1E584204600F046F815
:1031B0002068406994F83A10C0F38010222904D1A5
:1031C00018B1E585204600F02BF8E06B40F01000C8
:1031D000E0632046FEF765FF70BD10B50146806BC9
:1031E00009680968C90513D40021C1850168CA6846
:1031F00022F48072CA6001684A6922F001024A61C1
:1032000001684A6922F040024A61202180F83A10A0
:10321000FFF778F910BD10B5806BFFF775F910BD99
:103220000168CA6822F49072CA6001684A6922F093
:1032300001024A61202180F83A1070470168CA688B
:1032400022F0C002CA60202180F83910704710B502
:1032500090F83A10222901D0022010BD8168B1F502
:10326000805F11D00169002901681FD0496801F011
:103270007F03816A4A1C82620B70C18D491E09045A
:10328000090CC18518D026E00269816A002A02680B
:10329000526805D0D2B20A80816A491C8162ECE78B
:1032A000C2F308020A80816A891CF7E74A68816ACA
:1032B0004B1C83620A70E0E70168CA6822F49072CE
:1032C000CA6001684A6922F001024A61202180F83F
:1032D0003A10FFF717F9002010BD00002DE9F0416A
:1032E00004460068016921F44052E168114301611C
:1032F0002168C86849F20C6290432369A268E569B5
:103300001A4363692B431A430243CA602168486920
:1033100020F44072A06910434861E1696425B1F569
:10332000004F9748974A21684FF032083FD09142AA
:1033300001D081427CD1FEF7C3F900EBC00101EB63
:10334000001061688900B0FBF1F6FEF7B9F900EBF7
:10335000C00101EB001061688900B0FBF1F0B0FB27
:10336000F5F06FF01801484306EB800108EB0110FF
:10337000B0FBF5F000F0F006FEF7A2F900EBC0019B
:1033800001EB001061688900B0FBF1F0B0FBF5F0D3
:1033900006EB0016FEF794F900EBC00101EB0010FC
:1033A00061688900B0FBF1F7FEF78AF9D2E091423B
:1033B00001D081423DD1FEF783F900EBC00101EB62
:1033C000001061684900B0FBF1F0B0FBF5F00601B8
:1033D000FEF776F900EBC00101EB001061684900CF
:1033E000B0FBF1F7FEF76CF900EBC00101EB001048
:1033F00061684900B0FBF1F0B0FBF5F06FF0180127
:10340000484307EB800108EBC100B0FBF5F000F08A
:10341000F80006EB4006FEF753F900EBC00101EBA4
:10342000001061684900B0FBF1F7FEF749F93CE094
:1034300055E0FEF72DF900EBC00101EB00106168CB
:103440004900B0FBF1F0B0FBF5F00601FEF720F902
:1034500000EBC00101EB001061684900B0FBF1F71F
:10346000FEF716F900EBC00101EB0010616849009E
:10347000B0FBF1F0B0FBF5F06FF01801484307EB3B
:10348000800108EBC100B0FBF5F000F0F80006EB9E
:103490004006FEF7FDF800EBC00101EB001061688B
:1034A0004900B0FBF1F7FEF7F3F800EBC00101EBC8
:1034B000001061684900B0FBF1F0B0FBF5F06FF06F
:1034C0001801484307EB800108EBC100B0FBF5F0A1
:1034D00000F00700216830448860BDE8F081FEF705
:1034E000D7F800EBC00101EB001061688900B0FB68
:1034F000F1F6FEF7CDF800EBC00101EB00106168BA
:103500008900B0FBF1F0B0FBF5F06FF01801484313
:1035100006EB800108EB0110B0FBF5F000F0F006BF
:10352000FEF7B6F800EBC00101EB001061688900FE
:10353000B0FBF1F0B0FBF5F006EB0016FEF7A8F8D3
:1035400000EBC00101EB001061688900B0FBF1F7EE
:10355000FEF79EF800EBC00101EB001061688900E6
:10356000B0FBF1F0B0FBF5F06FF01801484307EB4A
:10357000800108EB0110B0FBF5F000F00F00A9E7A7
:10358000001401400010014090F83910212901D0A9
:10359000022070478168B1F5805F016A0BD04A1C38
:1035A0000262026809785160C18C491E0904090C45
:1035B000C1840ED017E009880268C1F30801516088
:1035C00001690029016A02D0491C0162ECE7891CEB
:1035D000FBE70168CA6822F08002CA600068C1681F
:1035E00041F04001C160002070472DE9F04198464C
:1035F00017460E460446069D1DE0681C1BD02DB1E3
:10360000FDF750FEA0EB0800A84214D92068C1685D
:1036100021F4D071C1602068416921F0010141614C
:10362000202084F8390084F83A00002084F838001B
:103630000320BDE8F0812068006836EA000004D06D
:103640000020B842D9D00020F3E70120F9E70000BC
:103650000148FEF727BD00001C3F002010B50448BC
:1036600000F096FCBDE810400148FEF71BBD0000CD
:103670005C3F00200148FEF715BD00009C3F002084
:103680000148FEF70FBD0000DC3F0020FEE7000010
:103690000FB47CB50C0009AD01D0611E00E0002123
:1036A000CDE90001064B6A462946089800F01AF851
:1036B000002C02D0009A002111707CBC5DF814FB34
:1036C0003B3B000802E008C8121F08C1002AFAD1DB
:1036D00070477047002001E001C1121F002AFBD192
:1036E000704700002DE9FF4F8DB00F4605460026BC
:1036F00006E025280BD0DDE90F1290476D1C761CE3
:1037000028780028F5D111B03046BDE8F08F0024AC
:10371000A246A1460122E94900E0044315F8013F11
:10372000203B02FA03F00842F7D128782A2810D06B
:103730006FF02F022878A0F13001092914D80AEB84
:103740008A0102EB410144F0020400EB010A6D1C06
:10375000F0E701CF5FEA000A03D544F40054CAF150
:10376000000A44F002046D1C28782E2817D115F8A1
:10377000010F44F004042A280ED06FF02F0228789D
:10378000A0F1300109290AD809EB890102EB4101B6
:1037900000EB01096D1CF2E757F8049B6D1C2878BB
:1037A0006C280FD006DC4C2817D068280DD06A286A
:1037B00014D104E0742810D07A280FD10DE044F41D
:1037C00000140AE044F4801401E044F440146978E1
:1037D000814202D104F580146D1C6D1C28786E287E
:1037E0001ED00CDC632830D004DC00288BD0582895
:1037F00011D19FE0642867D069280CD164E0732858
:103800002DD004DC6F2872D0702804D194E0752884
:103810006ED078286DD0DDE90F129047761C4BE111
:10382000C4F30250022806D0032809D0042801CF8F
:1038300009D0066040E101CFF117C0E900613BE12A
:1038400001CF068038E1067036E117F8040B8DF8D9
:10385000000000208DF80100EB46012003E057F83E
:1038600004BB4FF0FF3061074FF0000102D40DE0C0
:1038700008F10101884649450FDA8045F8DB1BF85D
:1038800008100029F4D108E008F1010188468142BE
:10389000FADB1BF808100029F6D1DDE90F23AAEBAB
:1038A00008008146214600F031F9304400EB08065B
:1038B00004E0DDE90F121BF8010B9047B8F1010895
:1038C000F7D221464846F2E00A21C4F302524FF0F3
:1038D000000B0891022A04D001CFC117032A09D096
:1038E0000AE0FF1D27F00707F7E8020108E02CE0D7
:1038F0001EE01FE000B2C117042A01D140B2C11777
:10390000021E71F1000206DA0023D0EB030063EB24
:1039100001012D2202E0220504D52B228DF824205E
:10392000012203E0E20701D02022F7E7904653E0AE
:103930000A210BE0102109E010214FF0000B44F0A8
:1039400004044FF00809089103E008214FF0000B30
:103950000891C4F30252022A04D001CF0021032AA5
:1039600006D006E0FF1D27F00707F7E8020103E095
:1039700080B2042A00D1C0B24FF0000822072BD534
:103980002A78702A07D0DDF820C08CF0100C5CEA91
:103990000B0C05D00EE040228DF82420012208E017
:1039A00050EA010306D030238DF824308DF825200D
:1039B00002229046089B83F0080353EA0B030BD1C5
:1039C00050EA010201D1620706D530228DF8242089
:1039D0004FF00108A9F101092A78582A04D038A229
:1039E0000B9208AA0A920BE03AA2F9E75B46089A02
:1039F000FCF783FC0B9B9B5C0A9A521E0A92137085
:103A000050EA0102F2D10A98ADEB000000F1200B60
:103A1000600702D524F4803401E04FF00109D94554
:103A200002DDA9EB0B0000E0002000EB0B0141449C
:103A30000890AAEB010AE00306D4DDE90F23214632
:103A4000504600F063F806444FF0000908E009A969
:103A500011F80900DDE90F12904709F10109761C00
:103A6000C145F4DBE0030CD5DDE90F2321465046C8
:103A700000F04CF8064404E0DDE90F1230209047D6
:103A8000761C0899481E08900029F5DC08E00A9881
:103A90000A990078491C0A91DDE90F129047761CBB
:103AA000BBF10001ABF1010BF1DC21465046DDE931
:103AB0000F2300F019F806446D1C21E609280100C7
:103AC0003031323334353637383961626364656694
:103AD0000000000030313233343536373839414256
:103AE00043444546000000002DE9F041044600250E
:103AF0001E461746880404D405E039462020B04706
:103B00006D1C641EF9D52846BDE8F0812DE9F04111
:103B1000044600251E469046C80301D5302700E024
:103B20002027880404D505E041463846B0476D1C7F
:103B3000641EF9D52846BDE8F0814A68002A06D0FF
:103B40000A68531C0B6010704868401E486070473C
:103B5000D0ED000AF4EEC00AF1EE10FA01DD80EDBE
:103B6000000AD0ED000AB1EE400AF4EEC00AF1EE10
:103B700010FA01D280ED000A7047B4EEC10AF1EEEE
:103B800010FA02DDB0EE410A7047B4EEE00AF1EE41
:103B900010FAF9D2B0EE600A7047904200DD10468C
:103BA000884200DA084600B2704700009FED091A0B
:103BB000B5EEC00AF6EE000AF1EE10FA02DB40EEB6
:103BC000010A01E050EE010ABDEEE00A10EE100A13
:103BD000704700000000C842B5EEC00AB2EE041AF9
:103BE000F6EE000AF1EE10FA02DB40EE010A01E007
:103BF00050EE010ABDEEE00A10EE100A7047000018
:103C000001280DD002280ED003280ED004280ED093
:103C100005280ED006280ED007280ED00848704779
:103C200007486430704707A0704708A070470BA092
:103C300070470EA0704710A07047134870470000EF
:103C4000704E000853415F53414645004942555369
:103C50005F54494D454F555400000000494E5641B0
:103C60004C49445F4348414E4E454C004641494C07
:103C7000534146450000000041524D5F53455155A8
:103C8000454E434500000000F450000810B504897B
:103C900044814A6B928A52BA02814B6BDB8A5BBACF
:103CA00003804B6B1B8B5BBA43808380496B131B78
:103CB000B3F5805F897E8171016901DD491E03E0F2
:103CC00013F5805F01DA491C016102EB4131828901
:103CD000891A416110BD496B898A49BA0181818184
:103CE0007047000010B5002823D0EFF3108372B6A0
:103CF0000022104931F8124020F81240521CD2B272
:103D00000A2AF7D351F8142F40F8142F4A6842605A
:103D10008A688260CA68C2600A8A02828A7C827467
:103D2000CA7CC2740A7D0275497D417503B962B6C9
:103D3000012010BDF8470020EFF3108272B6002179
:103D40000D4840F2DC5300BF20F81130491CC9B2C5
:103D50000A29F9D3002140F8141F41608160C16035
:103D600001828174C174017541750448017041700C
:103D700002B962B600F0B2B8F8470020880000200F
:103D800070B50D460646002404E0305D00F006F8EC
:103D9000641CA4B2AC42F8D370BD000010B5144C42
:103DA000144A217869B1012910D05054491CC8B275
:103DB0002070202804D3104600F036F80020207030
:103DC00010BD2028FCD110700120F8E740280AD04F
:103DD00008496C390B6A5B1C0B62202806D0002155
:103DE0002170107010BD50700220E8E70121F7E744
:103DF000880000206448002010B5FDF753FAEFF367
:103E0000108472B607498A692AB14969401A78282C
:103E100001D2012000E0002000F04EF8002C00D17B
:103E200062B610BDF847002010B502780021204C82
:103E3000202A02D14278402A03D0206A401C206206
:103E400010BD0022835C521CD2B219441E2AF9D341
:103E50004FF6FF72511AC28B89B28A4203D0E069D1
:103E6000401CE06110BD124A00218C32435C535467
:103E7000491CC9B22029F9D30E4A012151700021F1
:103E80005FF0020303EB4102D2B20244128824F82D
:103E90001120491CC9B20A29F4D3FDF703FA606165
:103EA000A069401CA061BDE81040012000F004B8EA
:103EB000F847002088000020074991F82620824218
:103EC00006D0012210B181F8282001E081F82720D6
:103ED00001F8260FC8707047F8470020074882B0E5
:103EE0000068016841680091C16841F01001C1603B
:103EF00040220349014802B0FEF7BCBA5C3F0020F3
:103F00002448002070B5016800224B6923F040036B
:103F10004B610168CB6823F48073CB6001684B6907
:103F200023F001034B61436B114643B31B681C68CC
:103F300024F01E041C60436B1B685C6924F0800441
:103F40005C61436B1B681C6824F001041C60446BBB
:103F50004FF47A75236800E0521C1E68F60701D002
:103F6000AA42F9D31A68D20701D0002070BD0122FD
:103F700084F83520426B5165426B82F83410202260
:103F800080F83A2020F82E1F8172012070BD0000B9
:103F900038B50024002829D0154A0168914225D15E
:103FA0000A68D243D20621D4CA68D2061ED50A684E
:103FB00049680091416B39B10968496889B2402963
:103FC00002D8C1F140018CB2FFF79CFF09498C84F3
:103FD00048B124B1074821462C30FFF7D1FEBDE897
:103FE0003840FFF77BBF086A401C086238BD0000FC
:103FF00000440040F847002010B500280FD00068AA
:10400000074988420BD1074940208884014605486A
:104010002C30FFF7B5FEBDE81040FFF75FBF10BDC5
:1040200000440040F8470020FDF74AF9FEF704FF7E
:10403000FEF75AFBFEF70EFBFEF7C6FAFEF7C8FDC9
:10404000FEF706FCFEF700FEFEF71AFEFEF7DEFAAC
:10405000FEF718FDFEF752FCFEF796FCFEF7CCFCCF
:10406000FEF75CFDFEF718FCFEF7D2FDFEF728FB1D
:1040700000F051F8FEE701460020842900D0C81C5A
:104080007047000000EB4002064800EB0210826A15
:10409000322A05D9C06A081A642801D8012070475D
:1040A000002070470C45002030B58BB0044600203E
:1040B000012103900490CDE906010E25CDE90815F4
:1040C000059000900190029069462046FCF7C0FAE6
:1040D000694620460595FCF7BBFA0848844203D19F
:1040E000074820631C3060630648844204D10448BA
:1040F000403020631C3060630BB030BD8C44002026
:10410000CC450020CC44002010B500B9012001F0BE
:10411000D5F9002010BD10B501F004FA002010BD43
:1041200010B501F0CDFB012803D0BDE8104001F02F
:10413000D3BA10BD30B5044685B00D46B0F90800BD
:10414000FFF799FF002104AA0090CDE90121039116
:10415000208A2B4682B2D4E9001001F0D3FA01285C
:1041600002D0002005B030BD0498FBE700B530EE6A
:10417000C01A80ED080AC0ED050A80ED0B1AD0EDDB
:10418000141A01469FED692A30EEC00AF5EEC01AF6
:10419000B1EE400AF1EE10FA0ED0B5EEC01AF1EE13
:1041A00010FA02DDF0EE410A01E0F0EE400AF4EE12
:1041B000E10AF1EE10FA12DCD1ED150AF5EEC00AB3
:1041C000F1EE10FA0ED0B5EEC01AF1EE10FA01DDE4
:1041D000B0EE410AB4EEE00AF1EE10FA02D2B0EE0F
:1041E000420A00BD886D01F13402032802D0042880
:1041F00038D07AE091ED000A104620EE010A81EDF8
:104200000C0A91ED0D0AD1ED010A00EE810A81ED53
:104210000D0A91ED0A0AD1ED020A31EE400A20EEB4
:10422000200A81ED0E0A91ED180AB8EE400AFFF758
:104230008FFC91ED0C0AD1ED0D0A01F13C0030EE3E
:10424000200AD1ED0E0A30EE200A81ED0F0A91ED21
:10425000170AB8EE400AFFF77BFC91ED0F0A81EDDB
:10426000100A42E091ED0A0AD1ED001A104671EEF3
:10427000400A60EEA10AC1ED0C0AD1ED010A60EE20
:10428000810AC1ED0D0AF0EE000A00EE601A91ED10
:10429000090AD1ED020A31EE000A20EE200A81ED72
:1042A0000E0A91ED180AB8EE400AFFF751FC91EDA5
:1042B0000C0AD1ED0D0A01F1480030EE200AD1EDD3
:1042C0000E0A30EE200A81ED110AD1ED130A30EE0C
:1042D000800A81ED120A91ED170AB8EE400AFFF745
:1042E00037FC91ED120A81ED130A91ED0A0A81ED76
:1042F000090A91ED0B0A81ED0A0A91ED070A81ED99
:10430000060A91ED080A81ED070A91ED040A81ED94
:10431000030A91ED050A81ED040A886D032802D095
:1043200091ED120A00BD91ED0F0A00BD00000000E2
:1043300000F1580C8CE80E0080EC030A704780EC0A
:10434000030A704700281FD000219FED100A00BF0C
:1043500000EB8102491C82ED030A82ED060AC9B214
:1043600082ED090A0329F3D380ED0C0A80ED0D0AD2
:1043700080ED0E0A80ED0F0A80ED100A80ED110A23
:1043800080ED120A80ED130A704700000000000063
:1043900070B50B4C054620684560E0682168854291
:1043A00005D2606BBDE87040091D00F0F1BF206BC5
:1043B000091D00F0EDFFA06A854200D2A56270BD24
:1043C0000800002070B5124E124C1AE001F0DEF821
:1043D0003068D0B101F0E8FA00F0FEFFF068C5687F
:1043E000281D00F0B5FFA068401EA0606068401E58
:1043F000606001F011F8286B01F022F8284601F006
:104400001FF860680028E1D170BD01F0CDFAF8E72F
:104410008C0100200800002010484FF47051420722
:1044200006D0C01D0D4920F00700411AC1F570519A
:104430000B4A00230144C2E900030839103A21F075
:10444000070111604B600B600B1AC0E90013936009
:104450004FF000405360D06070470000B40100206E
:104460005C000020074C4FF08056074DFFF7AAFF75
:1044700020680128FAD92E60BFF34F8FBFF36F8FEA
:10448000F4E70000C400002004ED00E030B511495D
:1044900000E011460A688242FBD34B685C188442F4
:1044A00003D1406818444860084643681C18944289
:1044B00009D1084C103C2468A24209D052681A4421
:1044C00042600A6812680260814200D0086030BD14
:1044D0000460F9E75C0000200648016B096829B117
:1044E000016BC968C9684968816270474FF0FF3144
:1044F000FAE700000800002008484068401C4FF020
:10450000500080F3118804D0BFF34F8FBFF36F8F3B
:10451000FEE7BFF34F8FBFF36F8FFEE74000002031
:104520002DE9F0410546002701F030F8314E3068A2
:1045300008B9FFF771FFF06805424BD1C5B30835E4
:1045400068070ED005F00700C0F1080005446807B1
:1045500007D0502080F31188BFF34F8FBFF36F8FC8
:10456000FEE72DB37068854234D8224810300146EA
:104570000C6801E020460C466168A94202D221681D
:104580000029F7D131688C4224D007682168016086
:1045900060680837411B10290FD96019420708D0FD
:1045A000502080F31188BFF34F8FBFF36F8FFEE76A
:1045B00010E041606560FFF769FF61687068401A4C
:1045C0007060B268904200D2B060F0680143002091
:1045D000C4E9000101F0E8F9780707D0502080F322
:1045E0001188BFF34F8FBFF36F8FFEE73846BDE8EA
:1045F000F08100004C00002010B5031F4FF08074C4
:104600001C601B1F1960191F044B0B6014390A60D2
:10461000091F6FF0020244380A6010BDF944000817
:10462000F0EE401A31EE810AB4EEE00AF1EE10FA33
:1046300008D331EEC10AB4EEE00AF1EE10FA01DC63
:10464000B0EE600A7047B4EEC10AF1EE10FA02DD76
:10465000B0EE410A7047B4EEE00AF1EE10FAF9D27A
:10466000B0EE600A7047000030B5002835D0EFF397
:10467000108372B61949002291ED000A80ED000AFC
:1046800091ED010A80ED010A91ED020A80ED020A26
:1046900091ED030A80ED030A01EB4204248A00EB4A
:1046A0004205521CD2B22C820A2AF5D311F8242FCB
:1046B00000F8242F4A7842708A788270CA78C270D3
:1046C0000A7902714A7942718A798271CA79C27112
:1046D000097A017203B962B6012030BDA4480020F6
:1046E00010B516498CB00020087048708870C860FA
:1046F00008610881C8700871487188719FED100ABF
:1047000048618DED000A8DED010A8DED020A8DEDF7
:10471000030A00216A4640F2DC5300BF02EB410469
:10472000491CC9B223820A29F8D309900A908DF84E
:104730002C00104600F074FD0CB010BDAC00002041
:1047400000000000704700002DE9F0432DED048BC0
:104750009DB0FCF7A7FD05460026FFF74DFB0FA80F
:10476000FFF7C0FABDF8481040F2A469494501D9E5
:10477000012000E0002080469DF86200BDF83C204A
:104780008DF827004FF49660A2F5617282421BD823
:10479000BDF83E20A2F56172824215D8BDF84020D6
:1047A000A2F5617282420FD8BDF84220A2F5617273
:1047B000824209D8A1F56171814205D8BDF84C103B
:1047C000A1F56171814201D9002000E001208DF83E
:1047D000290000248DF8284069460FAA4FEA0400FA
:1047E00001EB400732F81030401CC0B23B820A286F
:1047F000F6D39DF8290060B1BDF83C0000F002FD41
:1048000030B1BDF83E0000F0FDFC08B1012600E02B
:104810000026BDF83E00B7EE000A00F0AFFCB0EE97
:10482000409ABDF83C00B7EE000A00F0A7FCB0EEDD
:10483000408ABDF84000B7EE000A00F09FFCF0EEA1
:10484000408ABDF84200B7EE000A00F097FC9DF8E0
:10485000292040F214571AB1BDF84C00B84201D2D9
:10486000002004E0484501D9022000E001208DF835
:1048700025009DF82730504901205BB152B1DDF889
:1048800054C0BCF1000F05D091F802C0BCF1000F7C
:1048900009D00AE08C70CC600C70CC704C718C71BB
:1048A00093B1B2B101E08870CD60DDF854C0C1F8B9
:1048B00010C00C818DF8284084B10C700420487021
:1048C000CC704C718C7146E08C70CC600C70022006
:1048D000F5E78C70CC600C700320F0E7BDF848C0A1
:1048E000BC4514D28F7927B94F7917B1CF781FB152
:1048F00009E04D614871CC704F69ED1BB5F5967FAD
:1049000001D3C87008718C710C70487023E00527C2
:10491000B8F1000F19D04C7191F800C0BCF1010F33
:1049200003D04F708F7917B10DE008700BE0CF788E
:104930004FB146B18F7837B1CF68ED1BB5F5FA7F2F
:1049400001D30870CC70887105E00878012802D086
:104950004C718C714F7008788DF824004C788DF86C
:10496000264009798DF82B108DF82C60012804D190
:104970001BB112B19DF8280050B100208DF82A001B
:1049800040B18DED009A8DED018ACDED028A09E0EE
:104990000120F3E79FED090A8DED000A8DED010A74
:1049A0008DED020A8DED030A684600F039FC1DB05A
:1049B000BDEC048BBDE8F083AC00002000000000DB
:1049C0002DE9F74F93462DED048B86B00446FCF796
:1049D00069FC99490A69CAB1871A00269FED978A2E
:1049E000354603960496642F00D96427086194F82D
:1049F0002A00DFF85092DFF8488209F11C0A0028EB
:104A00007ED094F82400012802D0BDE00A27E4E714
:104A100094F82700002874D094F82500022871D05B
:104A2000012870D09FED888AB7EE001A94EC020A34
:104A300030EE200AFFEE000AFFF79FF8B0EE409A32
:104A400094EC020AB7EE001A30EE600AFFEE000A9C
:104A5000FFF793F8F0EE400A00EE107AB8EE401A35
:104A6000DFED7A1A81EE210A9FED791A69EE481A74
:104A700020EE888A5646F0EE610A60EE018A9AEDD1
:104A8000000AB0EE681AFFF7CBFD86ED000A96ED3E
:104A9000020AB0EE681AF0EE480AFFF7C1FD86ED93
:104AA000020AD6ED008AB0EE408A6A4EBDEEE80AF0
:104AB000F0EE680A89ED000ABDEEC80A89ED020A27
:104AC000C9F80450C9F80C50B6F9000000EE100AFD
:104AD0005B48B8EEC00AD838FFF748FBB6F960006B
:104AE000F0EE480A00EE100A4046B8EEC00AFFF7A2
:104AF0003DFB534ED83E96ED0F0ABDEEC00A03E0D3
:104B00003DE05BE091E093E043F6A407C7F10008C5
:104B100010EE100A3A464146FFF73FF8ADF80C0098
:104B200096ED450A3A464146BDEEC00A10EE100A1F
:104B3000FFF733F8ADF8100003A800F0F1FA5B4678
:104B4000012120460B9A00F08BF800F00DF9BDF919
:104B50001000BDF90C10CDE90010F0EE480AB0EEDF
:104B6000680A5B460295214601200B9A00F0ECF999
:104B700000F01EF906B0BDEC048BBDE8FE8F94F882
:104B80002410012900D1C8B994F8270020B194F865
:104B9000280018B1052611E003260FE094F829003B
:104BA000E0B394F8260001283BD00228F4D0032873
:104BB00035D00428EED0052835D0072603A90020DB
:104BC0004B46524602EB800743F8205087ED008A9F
:104BD00021F81050401CC0B20428F3D31848D8382C
:104BE000FFF7B0FB4046FFF7ADFB00956846019527
:104BF00000F096FA5B46002120460B9A00F030F850
:104C000000F0B2F80095CDE90156B0EE480A5B46D7
:104C1000F0EE400A214600200B9AA7E7FFE70426A2
:104C2000CCE70226CAE70626C8E79FED0B8AFBE61B
:104C30009FED0A8AF8E600006400002000000000F2
:104C4000AC490020CC4300200000204300007A44FF
:104C5000000096430C4500200000C8440000A0431B
:104C60002DE9F04390F8276090F82B7090F82450CD
:104C700090F82C40994640F2A46C86B197B1012D72
:104C800003D0838B634500D97CB109B1012D0FD0CE
:104C90004FF00108184B83F8008079B90BE04FF012
:104CA0000408F7E74FF00008F4E74FF00208F1E7D7
:104CB0004FF00308EEE7808B604501D8002002E04A
:104CC0009EB1A4B1012058709F70012D11D0002019
:104CD000D87019715E719A7183F807901C72012067
:104CE000587200209872BDE8F0830320EBE70220A1
:104CF000E9E70120ECE70000DC430020052831D083
:104D000003280DD004280DD04FF47A7290B10228F8
:104D100018D0B1FBF2F002FB1010B0F5FA7F21D2EF
:104D200001207047FA20B1FBF0F200FB12107D2841
:104D3000F6D317E0B1FBF2F002FB10106428EFD3BA
:104D4000C8380DE04FF49660B1FBF0F200FB121092
:104D50006428E5D3A0F1C8016429E1D3A0F5C870A7
:104D60006428DDD30020704710B5FCF79BFA0D4A8C
:104D700013780D490C78A34202D013780B70486069
:104D80004968411A1078FFF7B9FF40B15FF000029F
:104D9000BDE810404FF480410448FCF77DBA012281
:104DA000F6E70000DC43002064000020001402400D
:104DB000F0B58BB0FCF776FA2B4D0446A868201AA4
:104DC000B0F5FA7F39D329484178012937D0022933
:104DD00037D0032937D0042937D0052937D024A26A
:104DE0000178002935D0012935D0022935D0032991
:104DF00035D0042935D020A390F80AC0477AC67967
:104E000081790DF1180E8EE8C2104179067A877803
:104E1000CDE90461CDE90227C1780079CDE900012F
:104E20001B4AF0211B48FEF733FC0146F02800DB4B
:104E3000EF21184800F07AFAAC600BB0F0BD16A272
:104E4000CEE71BA2CCE71FA2CAE722A2C8E725A291
:104E5000C6E728A3D0E72CA3CEE72FA3CCE733A344
:104E6000CAE736A3C8E7000064000020DC43002046
:104E70004E4F4E45000000004641554C545F445291
:104E80004956455F44495341424C454400000000A7
:104E9000445B00089C41002053415F454447455F07
:104EA0004E4F545F41434345505445440000000079
:104EB000434831325F4E4F545F43454E544552454F
:104EC00044000000494255535F4F46464C494E4509
:104ED0000000000044524956455F44495341424C4A
:104EE00045440000444941474E4F535449435F4DA8
:104EF0004F444500424F4F545F574149545F53411F
:104F00005F5341464500000044495341524D5F4EB6
:104F10004F524D414C00000041524D5F424C4F43B7
:104F20004B45445F535449434B53000041524D4558
:104F3000445F474154455F4F50454E004641554CF4
:104F4000545F4942555300002DE9FF4F2DED020BF0
:104F50000C462DED028B9BB0F0EE608AB0EE408ADD
:104F6000FCF7A0F9169094ED000AFEF71FFE8046AC
:104F700094ED010AFEF71AFE0746B0EE480AFEF766
:104F80002BFE0646B0EE680AFEF726FE0546B8F18F
:104F9000000001DAC8F100000190002F01DA784228
:104FA00000E038468346002E01DA704200E03046C9
:104FB0008246002D01DA684200E028464B498146CE
:104FC0001698C968401AB0F5FA7F7CD32E98FEF780
:104FD00017FE01460A2099FBF0F300FB13920A9298
:104FE00099FBF0F29AFBF0F3099200FB13A29AFBF3
:104FF000F0F0CDE9070264209BFBF0F300FB13B255
:105000000392019A9BFBF0FE92FBF0F392FBF0FA05
:1050100000FB132B94F82500022822D0012822D06F
:1050200033A0814694F8240001281ED031A000BF8F
:10503000DDE92132DDF8B4C0CDE91421CDE912C398
:105040002E4ADDF8B0C00A99B2F96030B2F90020FA
:10505000CDE9103CCDE90E120999002D07DA28A5FB
:1050600006E028A0DDE729A0DBE729A0E0E726A5E8
:10507000DDE90723CDE90C51002ECDE90A2301DA41
:105080001FA300E020A3039A002F01DA1CA500E073
:105090001DA5CDE9065EB8F1000FCDE9082301DAC0
:1050A00017A500E018A503A9CDF8089081E8200C09
:1050B00094F827104FF4A074CDE90001164A214658
:1050C00016481F9B00E00BE0FEF7E2FA0146A04203
:1050D00000DB611E114800F029F904491698C860E8
:1050E0001BB0BDEC028B06B0BDE8F08F6400002061
:1050F0004C4F570044495341524D00000C4500208D
:105100002D00000048494748000000004D49440078
:1051100041524D4544000000985A00088C4200203E
:1051200038B50446B0F906000090B4F90430B4F97B
:105130000220B4F900100F4800F0ACF8B4F90600F2
:105140000090B4F90430B4F90220B4F900100A4810
:1051500000F0A0F80024234622462146054800948A
:1051600000F0BEF800231A4619460348009400F0E8
:10517000B7F838BD8C440020CC44002010B54FF463
:105180007A722DED028B5100B0EE408A884201D92F
:10519000084602E0904200D2104600EE100ADFED11
:1051A000140A9FED141AB8EE400A70EE600A80EE01
:1051B000810AB7EE001AFFEE000AFFF744FA10EE7C
:1051C000100A0D49884206D210EE100A0B49884297
:1051D00001DA9FED0B0AB7EE001AFFEE000A20EE8F
:1051E000080ABDEC028BBDE81040FFF72CBA0000A6
:1051F0000080BB440000FA43CDCC4CBDCDCC4C3D2F
:105200000000000010B5B7EE000AFFF7B7FFB5EEDB
:10521000C00AF1EE10FA01D1012010BD002010BD2E
:1052200030B5EFF3108372B6194990ED000A0022F1
:1052300081ED000A90ED010A81ED010A90ED020A6C
:1052400081ED020A90ED030A81ED030A00EB4204AE
:1052500001EB4205248A2C82521CD2B20A2AF5D3D1
:1052600010F8242F01F8242F42784A7082788A702F
:10527000C278CA7002790A7142794A7182798A7158
:10528000C279CA71007A0872002B00D162B630BDB3
:10529000A4480020F0B4066B4FF40075049C356000
:1052A000066B0025B560066BF560066B0825356159
:1052B000066B0D0A3575056B6975056B110AA975C5
:1052C000016BCA75026B190A1176016B4B76026B82
:1052D000210A9176016BCC76F0BC0A21FBF78ABCDF
:1052E000F0B4066B40F2FF15049C3560066B002598
:1052F000B560066BF560066B08253561066B0D0A17
:105300003575056B6975056B110AA975016BCA7551
:10531000026B190A1176016B4B76026B210A9176AA
:10532000016BCC76F0BC0A21FBF764BC00280CD0E2
:1053300000290ADD4FF4A072914200DD11468AB2C5
:10534000014664230148FDF7E0B870475C3F002048
:10535000D0E9013201699A60D0E901235A604A68B4
:10536000824201D182684A60002202610868401EC0
:105370000860704700F108014FF0FF32C0E90112E8
:10538000C160016100210160704700210161704727
:1053900030B50B685A1C02D000F1080202E0026925
:1053A00004E02246546825689D42FAD953684B6050
:1053B00099608A60516008610168491C016030BDD4
:1053C00042684A6093688B60936859609160086195
:1053D0000168491C01607047502080F31188BFF3B9
:1053E0004F8FBFF36F8F0A494868401C48600128FF
:1053F0000CD10848006810F0FF0F07D0502080F350
:105400001188BFF34F8FBFF36F8FFEE77047000027
:105410004000002004ED00E00849486828B1401E23
:10542000486001D180F311887047502080F31188C3
:10543000BFF34F8FBFF36F8FFEE7000040000020E7
:1054400070B5002827D0144DA0F108046168E86801
:10545000014207D1502080F31188BFF34F8FBFF373
:105460006F8FFEE722683AB1502080F31188BFF3B6
:105470004F8FBFF36F8FFEE78143616000F086F8C6
:1054800060686968084468602046FEF7FFFFBDE871
:10549000704000F089BA70BD4C00002006484FF4FF
:1054A0007A710068B0FBF1F14FF0E020491E4161D4
:1054B00007210161704700000400002070B5020060
:1054C00022D0164CE06A38B1502080F31188BFF327
:1054D0004F8FBFF36F8FFEE700F058F8E068851834
:1054E0002068001DFFF734FF38B9206890F82C10B1
:1054F000012088402169814321612846FEF748FF49
:1055000000F052FA002807D105494FF0805008609A
:10551000BFF34F8FBFF36F8F70BD000008000020F6
:1055200004ED00E01FB5002400940194029423468A
:10553000802212A11348039400F0E4F8012809D056
:10554000002819D1502080F31188BFF34F8FBFF38B
:105550006F8FFEE7502080F31188BFF34F8FBFF3AA
:105560006F8F09484FF0FF31816201214161C460B2
:10557000BDE81F4000F040B81FBD000049444C4545
:105580000000000065440008080000200248C16ACD
:10559000491CC16270470000080000201448C16A1D
:1055A00011B10121C16170470021C1610169B1FAE6
:1055B00081F1C1F11F0101EB81020E4951F8223046
:1055C0006BB101EB820101F108034A6852684A603D
:1055D0009A4201D152684A60D168016070475020F8
:1055E00080F31188BFF34F8FBFF36F8FFEE700008A
:1055F00008000020C40000201CB532480168324A6F
:10560000914207D1502080F31188BFF34F8FBFF331
:105610006F8FFEE700682C49491E884207D1502051
:1056200080F31188BFF34F8FBFF36F8FFEE72749D9
:1056300008780190FF20087008788DF800009DF828
:1056400000009DF8002000F0F000904207D05020AC
:1056500080F31188BFF34F8FBFF36F8FFEE79DF884
:1056600000001B4A00F0500010700720906005E019
:105670009DF800305B008DF80030401E9DF8003032
:105680001B06F5D4000200F4E060906001980870F9
:105690000C482030016841F470010160016841F05C
:1056A00070410160FFF7FAFE00205060FAF7AAFD92
:1056B0000848016841F040410160FAF793FD00207D
:1056C0001CBD000000ED00E071C20F4100E400E0ED
:1056D0004000002034EF00E010B5502080F3118826
:1056E000BFF34F8FBFF36F8F00F0F8F818B1044984
:1056F0004FF080500860002080F3118810BD00003A
:1057000004ED00E02DE9FF5F5FEA000BDDE90F909B
:105710000E9E15468A4609D0072E0FD3502080F3DF
:105720001188BFF34F8FBFF36F8FFEE7502080F3D8
:105730001188BFF34F8FBFF36F8FFEE7A900884634
:1057400010B90846FEF7ECFE07001ED05C20FEF7FD
:10575000E7FE0400384616D0A52241462063FAF73A
:10576000B3FD6FF00301206B01EB8501084420F0CD
:10577000070778070CD0502080F31188BFF34F8FB4
:10578000BFF36F8FFEE7FFF75BFE4FF0FF348CE057
:1057900051463546002022180B5C82F834300A5CF2
:1057A00012B1401C1028F6D3002084F84300072DC6
:1057B00000D30625E562C4E913508046201DFFF79B
:1057C000E4FD04F11800FFF7E0FD2461C5F10701D5
:1057D0006462A161C4F8548084F858805946384600
:1057E000039AFEF709FF2060B9F1000F01D0C9F854
:1057F0000040FFF7F1FD2F4DA868401CA860286805
:10580000DFF8B48010B1686948B32DE02C60A86857
:10581000012829D15FF0000707EB870108EB810021
:10582000FFF7A8FD7F1C072FF6D323488C30FFF726
:10583000A1FD2148A030FFF79DFD1F48B430FFF7C0
:1058400099FD1D48C830FFF795FD1B48DC30FFF778
:1058500091FD19488C3028631430686304E028688F
:10586000C06AB04200D82C60686A401C68626064FC
:10587000E16A01202A6988401043286101EB810117
:1058800008EB8100211DFFF79BFD0124FFF7C4FDFC
:10589000686950B12868C06AB04206D2074920073B
:1058A0000860BFF34F8FBFF36F8F04B02046BDE891
:1058B000F09F000008000020C400002004ED00E07C
:1058C0000548416919B1C06A18B10020704701202C
:1058D0007047022070470000080000202DE9F041C9
:1058E0002F4C0026E06A40B1A069401CA061E0692D
:1058F00000B101263046BDE8F081E068401CE06060
:10590000E7689FB9206B006838B1502080F3118898
:10591000BFF34F8FBFF36F8FFEE7206B616B216387
:105920006063206A401C2062FEF7D6FDA06ADFF8A3
:105930007480874209D3206B006880B1206BC068F7
:10594000C568686887420DD2A0622068C06A00EB13
:10595000800158F821000128C9D90126C7E74FF076
:10596000FF30F1E7281DFFF7F3FCA86A18B105F135
:105970001800FFF7EDFCE86A01212269814011431C
:10598000216100EB800108EB8100291DFFF718FD64
:10599000E86A2168C96A8842CDD30126CBE70000B6
:1059A00008000020C40000202DE9F0472C4C002600
:1059B000E06A38B1FFF710FDE06A401EE062E06A7D
:1059C00040B147E0502080F31188BFF34F8FBFF301
:1059D0006F8FFEE7A168234D012079B3A5F1B409CB
:1059E00080462868E8B1E868C76807F11800FFF743
:1059F000AFFC381DFFF7ACFCF96A226908FA01F028
:105A00001043206101EB810109EB8100391DFFF793
:105A1000D7FCF86A2168C96A8842E2D3C4F81C80BE
:105A2000DFE7A06958B14546A06940B1FFF756FFCE
:105A300000B1E561A069401EA061F5E70AE0E069F8
:105A4000012807D10849012600070860BFF34F8FDE
:105A5000BFF36F8FFFF7E0FC3046BDE8F087000032
:105A6000080000207801002004ED00E00006101678
:105A700000061016000000000102030401020304E6
:105A800006070809C85B0008F52C000800000000A4
:105A90000000000080000000445249564520676124
:105AA00074653D25752061726D3D257320736572A7
:105AB00069616C3D2575206D6F64653D25732066B9
:105AC00077643D257325642E253032642074757209
:105AD0006E3D257325642E25303264204C7461722E
