:020000040800F2
:100000007849002081020008172A000821230008EF
:10001000152A00081103000815330008000000002D
:10002000000000000000000000000000C501000802
:10003000790500080000000019020008D12B000813
:100040009B0200089B0200089B0200089B0200081C
:100050009B0200089B0200089B0200089B0200080C
:100060009B0200089B0200089B0200089B020008FC
:10007000CD0400089B0200089B0200089B020008B8
:10008000D90400089B0200089B0200082103000815
:10009000150300089B0200089B0200089B02000851
:1000A0009B0200089B0200089B0200089B020008BC
:1000B0009B0200089B0200089B0200089B020008AC
:1000C0009B0200089B0200089B0200089B0200089C
:1000D0009B020008E5320008F1320008FD320008FA
:1000E0009B0200089B0200089B0200089B0200087C
:1000F0009B0200089B0200089B0200089B0200086C
:100100009B0200089B0200089B0200089B0200085B
:100110009B0200089B020008CD2C00089B020008EF
:100120009B020008E5040008F10400089B02000897
:100130009B0200089B0200089B020008390300088C
:100140002D0300089B0200089B0200089B02000888
:100150009B0200089B0200089B020008093300086C
:100160009B0200089B0200089B0200089B020008FB
:100170009B0200089B0200089B0200080000000090
:100180009B0200089B0200089B0200089B020008DB
:100190009B0200089B0200089B0200089B020008CB
:1001A00000000000000000009B020008DFF810D0F3
:1001B00000F09CF800480047B5330008AFF300801A
:1001C000784900202B4B19680868B0E8F04F80F39D
:1001D0000988BFF36F8F4FF0000080F311887047DC
:1001E0000000000006480068006880F3088862B6D6
:1001F00061B6BFF34F8FBFF36F8F00DF00BF00BF4B
:1002000008ED00E0DFF80C00016841F470010160C6
:10021000704700BF88ED00E0EFF30980BFF36F8FF8
:10022000144B1A681EF0100F08BF20ED108A20E949
:10023000F04F106008B44FF0500080F31188BFF306
:100240004F8FBFF36F8F03F0EBFC4FF0000080F394
:10025000118808BC19680868B0E8F04F1EF0100F4C
:1002600008BFB0EC108A80F30988BFF36F8F704726
:1002700000BF00BF08000020EFF3058070470000BA
:100280000648804706480047FEE7FEE7FEE7FEE730
:10029000FEE7FEE7FEE7FEE7FEE7FEE7792C000853
:1002A000AD01000840EA01039B0703D009E008C93B
:1002B000121F08C0042AFAD203E011F8013B00F82B
:1002C000013B521EF9D27047D2B201E000F8012B77
:1002D000491EFBD270470022F6E710B513460A46C6
:1002E00004461946FFF7F0FF204610BD064C074DA7
:1002F00006E0E06840F0010394E8070098471034F6
:10030000AC42F6D3FFF756FF2841000848410008E9
:10031000FEE70000014800F0A5B90000EC41002014
:10032000014800F09FB90000EC410020014800F0B6
:1003300099B900002C420020014800F093B9000058
:100340002C42002010B54FF4D872036802EB011262
:100350009B5813F00404436B9C600468436BA458DF
:1003600054D0E4085C6003689A58436B02F00202C0
:10037000DA604FF4DA72036802EB01129B58446BA7
:1003800003F00F03236103689A58436BC2F30722FB
:10039000DA614FF4DC72036802EB01129B58446B84
:1003A000237503689B58446B1B0A637503689B584D
:1003B000446B1B0CA37503689A58436B120EDA75D5
:1003C0004FF4DE72036802EB01129B58446B2376F4
:1003D00003689B58446B1B0A637603689B58446B05
:1003E0001B0CA37603689A58436B120EDA76202210
:1003F000002901680DD00A6101684A6922F01002E3
:100400004A6190F83810222909D021E0640D1C605F
:10041000A9E7CA6001684A6922F00202F0E70168B0
:100420004A6922F480724A6101684A6922F40072C2
:100430004A6101684A6922F480624A6101684A6936
:1004400022F400624A6101684A6922F400424A616A
:1004500090F83810322907D05FF0010180F8381089
:1004600000F018FB002010BD1221F7E710B501685D
:100470004A6922F001024A6190F83810122918D115
:1004800001684A6922F480724A6101684A6922F46B
:1004900000724A6101684A6922F480624A61016817
:1004A0004A6922F400624A6101684A6922F4004202
:1004B0004A6190F83810322906D0012180F83810AE
:1004C00000F0FCFB002010BD2221F7E7014800F0FE
:1004D00009BC000088400020014800F003BC000077
:1004E00028400020014800F0FDBB0000E84000204B
:1004F000014800F0F7BB0000C83F00200168182346
:10050000CAB2103AB2FBF3F2054B6FF30901032AAA
:100510009B5CC36500D9091D8165084670470000D2
:10052000F040000810B5014600208B698A6A4FF040
:10053000C07453B1B3F5005F15D072B1012A0CD06D
:10054000022A0AD0032A09D104E01AB1012A06D0EE
:10055000022A03D1C96AC90100D5012010BDC96AA8
:10056000A142FAD010BD002AF7D0012AF2D0022A07
:10057000F3D0032AF3D010BD7047FEE7F0B50A7D33
:1005800001209040344A136843F00103136013685C
:1005900023F47C53136013684C6A43EA042313600A
:1005A0002D4B1C331C6884431C602B4D2B4CCE6997
:1005B0000C35A6B92E6886432E608F894E6867F386
:1005C0001F464F6904EBC707C7F840660F890E68DE
:1005D00067F31F464F6904EBC707C7F84466CE6947
:1005E000012E14D12E6806432E600E884D6866F3E6
:1005F0001F454E6904EBC606C6F840560E89CD6805
:1006000066F31F454E6904EBC604C4F84456124C09
:100610008D69241D002D256806D0054325600E4CEC
:100620000D69143415B104E08543F7E72568854367
:1006300025600D69012D02D1256805432560096AF1
:10064000012902D1196801431960106820F00100E6
:1006500010600020F0BD0000006600400060004017
:100660007047000010B5044600684169C943C907D6
:1006700014D182685849914368D000218368574A51
:100680009A4365D0002283685548984362D0002081
:100690001143014302D02046FFF7E8FE2068C168FD
:1006A000406911F0030FC0F3400004D018B10021DD
:1006B0002046FFF747FE21680869496910F0030FDB
:1006C000C1F3001104D019B101212046FFF73AFE11
:1006D00020688169426911F0010FC2F30023426969
:1006E000C2F3C03205D023B11AB1E16B41F0010170
:1006F000E1638169C1F3400341694269C1F340216B
:10070000C2F3C0322BB121B11AB1E16B41F0020149
:10071000E16381694269C1F38001C2F380234269C8
:10072000C2F3C03229B123B11AB1E16B41F0040127
:10073000E163816911F0700F0ED0002142694369B5
:10074000C2F3C022C3F3C03341B127E0012195E7D2
:10075000012298E701209BE70121EFE7F2B1EBB11D
:10076000816901F07001402929D006DC102909D0E7
:1007700020290BD030290DD11DE0502923D060292C
:1007800008D124E0E16B41F0080102E0E16B41F0A7
:100790001001E163816921F070018161E06B002843
:1007A00008D0216804204860012084F838002046E1
:1007B000FFF756FF10BDE16B41F02001E9E7E16B67
:1007C00041F04001E5E7E16B41F08001E1E7E16BD9
:1007D00041F48071DDE7000003000004000300081D
:1007E000000003102DE9F041040004D094F8380013
:1007F000002518B107E00120BDE8F08184F83950E8
:10080000204600F093F8022084F838002068016840
:1008100021F0020101602068016841F001010160DE
:1008200000F094FC0746032605E000BF00F08EFCB4
:10083000C01B0A2863D820684068C007F6D020682B
:100840004168C90768D0A169012901683FD021F03A
:1008500080010160E0690128206801683AD021F038
:1008600040010160206A01282068016835D021F02C
:1008700020010160606A01282068016830D021F001
:1008800010010160A06A0128206801682BD021F0C6
:1008900008010160E06A01282068016826D021F083
:1008A00004010160D4E902010843D4E904121143B0
:1008B00008436168491E08432168C86120680168CF
:1008C00021F00101016000F041FC07461CE041F00D
:1008D0008001BEE741F04001C3E741F02001C8E7D5
:1008E00041F01001CDE741F00801D2E741F00401E9
:1008F000D7E700BF00F02AFCC01B0A2804D904F87F
:10090000386F0320657077E720684068C007F1D131
:1009100020684068C00703D0042084F838006AE7E4
:10092000E563012084F83800002065E7F0B5324B1C
:100930000768DFF8C0C018680322022409252F4980
:100940000026401C87B0674521D11860012807D1D7
:10095000086840F000700860086800F000700590BA
:100960008DE85400CDE903256946254800F002FBD7
:1009700000220521132000F083FC132000F074FCFA
:1009800000220521142000F07BFC14202EE0DFF86B
:1009900074C067452CD10F6847F080670F600F68FF
:1009A000012807F080670597186007D1086840F0B4
:1009B00000700860086800F0007005904FF4405027
:1009C0008DE85100CDE9032569460F4800F0D2FAC1
:1009D000002211463F2000F053FC3F2000F044FC71
:1009E00000221146402000F04BFC402000F03CFC6F
:1009F00007B0F0BD006400406800002040380240AD
:100A0000000C0240006800400004024010B590F85D
:100A10003820012A01D0122A39D190F83920012A30
:100A200035D0012280F8392090F83820122A29D0B8
:100A30005FF0220280F838200022C26303685C69FC
:100A400044F480745C6103685C6944F400745C6124
:100A500003685C6944F480645C6103685C6944F425
:100A600000645C6103685C6944F400445C6180F884
:100A7000392000680029416906D041F01001416128
:100A8000002010BD3222D5E741F00201F7E7022035
:100A900010BD000010B50446406B0068A0F5007161
:100AA000013905D0012903D0022901D0032919D128
:100AB000401EC1B21248017001EB410000EBC101C0
:100AC000104800EB8100816A4A1C3229826221466B
:100AD00002D802F069FC01E002F041FC21460A481C
:100AE00002F03DFC09480068416941F002014161A2
:100AF00007480068416941F00201416110BD0000F2
:100B00006C0000206C4200209C430020EC4100203F
:100B10002C4200202DE9F05F0E46016804468868EB
:100B2000400105D48868000102D48868C00068D5F7
:100B300094F8390001280ED0012784F8397094F810
:100B4000380022280AD0122084F838008868400132
:100B500006D500250AE00220BDE8F09F3220F3E729
:100B60008868000101D5012500E002254FF4C0701E
:100B700000EB05100A5802F001020A50216B8A6846
:100B8000F2B3D4F800C05CF800301343CA68496877
:100B900042EAC1010B434CF80030216B0A7C02F0A1
:100BA0000F020A614FF4C271226801EB051153581C
:100BB00023F00F03535022685358D4F830C0DCF8A8
:100BC00010C043EA0C035350216B0A7DCB7D42EAEF
:100BD00003628B7D497D1B0443EA01210A434FF4E4
:100BE000C473216803EB0513CA50216B0A7ECB7EC8
:100BF00042EA03628B7E497E1B0443EA012101E045
:100C000016E04FE00A434FF4C673216803EB051367
:100C1000CA5021680A5842F001020A5000F096FAC0
:100C200081464FF00008DFF888A0DFF888B019E0AF
:100C300022681358D1F80CC0098843EA0C0343EA30
:100C400041511150A9E7701C0CD02EB100F07EFA72
:100C5000A0EB0900B04205D9032084F8380084F8DD
:100C6000398079E795B12068012D816813D0124849
:100C700088430028E7D194F8380032280ED084F851
:100C8000387000BF84F83980002065E720688168EB
:100C90002AEA0100EDE72BEA0100EAE7222084F8C6
:100CA0003800EFE7042084F83800012054E7000002
:100CB000030000040003000800000310704790F8D0
:100CC0003510022903D0802141650120704705219C
:100CD00080F835100068016821F0010101600020F2
:100CE000704700002DE9F84304464FF00008CDF8A6
:100CF000008064484FF41651A56D0068B0FBF1F711
:100D00002E6894F85C10082000FA01F131420FD0EF
:100D100021680A6852070BD50A6822F004020A60AB
:100D200094F85C108840A860606D40F00100606538
:100D300094F85C1054488840304208D021684969D2
:100D4000090604D5A860606D40F0020060654E4859
:100D500094F85C10C01C8840304208D021680968B3
:100D6000890704D5A860606D40F00400606594F8C0
:100D70005C1010208840304218D0216809680907AB
:100D800014D5A86020680168490304D500680003F1
:100D900008D5A16C07E00168C90503D4016821F0FA
:100DA00008010160216C09B12046884794F85C1065
:100DB0002020884030424FF0010631D02168096878
:100DC000C9062DD5A86094F835000528206801686B
:100DD00006D0490347D5006800031DD4616C1CE0B0
:100DE00021F0160101602068416921F08001416114
:100DF000206C08B9A06C20B12068016821F00801BE
:100E0000016094F85C103F208840A86084F834802A
:100E100084F83560216D1FE0E16B09B120468847F9
:100E2000606D00282BD0606DC00714D0052084F8B9
:100E300035002068016821F0010101600098401C24
:100E40000090B84203D820680068C007F6D184F843
:100E5000348084F83560E16C002910D001B0204660
:100E6000BDE8F04308470168C905D5D4016821F001
:100E70001001016084F8348084F83560CCE7BDE867
:100E8000F883000004000020010080002DE9F041FB
:100E9000044600F05BF906465CB1002584F8345046
:100EA000022084F835002068016821F0010101600A
:100EB0000DE00120BDE8F08100F048F9801B052815
:100EC00005D920206065032084F83500F2E720680A
:100ED0000068C007F0D1226811681F480140D4E9BA
:100EE00001031843D4E903363343184363691843B5
:100EF000A3691843E3691843236A18430843616AE6
:100F0000042903D1D4E90B13194308431060206866
:100F10004069666A20F0070130460E430127042825
:100F20000AD1A06A06432046FFF7FCFA20B1402010
:100F3000606584F83570BCE7206846612046FFF79D
:100F4000DDFA94F85C203F2191408160656584F86A
:100F500035700020AEE700003F8010F031B500F0A2
:100F6000F5F8044600F0F2F80099001B8842F9D326
:100F700038BD00002DE9F84FDFF890B100224FF0A6
:100F800001084FF0030A4FF00F090BF1040E00BFE8
:100F90000B6808FA02F42340A3426ED14D68022D7B
:100FA00001D0122D0ED1D50800EB850CDCF82050B5
:100FB0005607F70E09FA07F6B5430E69BE402E43F1
:100FC000CCF82060066855000F790AFA05FC07F096
:100FD000030726EA0C06AF40374307604E68012E30
:100FE00005D0022E03D0112E01D0122E0ED187680B
:100FF000CE6827EA0C07AE403E4386604668A643AB
:101000000C79C4F30014944034434460C4688E687F
:1010100024EA0C04AE402643C6604C68E4006FD559
:101020003B4C256845F480452560246822F0030583
:1010300004F480440094374C2E19D6F808489507DC
:101040002F0F09FA07F5AC43334DA84201D1002513
:101050002EE0324DA84201D1012529E0304DA842B1
:1010600001D1022524E02F4DA84201D103251FE024
:101070002D4DA84202D104251AE041E02B4DA84293
:1010800001D1052514E02A4DA84201D106250FE023
:10109000284DA84201D107250AE0274DA84201D1D9
:1010A000082505E0254DA84201D1092500E00A25C3
:1010B000BD402543C6F80858DBF800405D464E6841
:1010C0009C43F60300D51C432C60DEF800407546B7
:1010D0004E689C43B60300D51C432C600B4D08356D
:1010E0002C684E689C43F60200D51C432C60074DCB
:1010F0000C352C684E689C43B60200D51C432C600E
:10110000521C102AFFF444AFBDE8F88F003C0140A8
:101110004438024000300140000002400004024018
:1011200000080240000C024000100240001402407F
:1011300000180240001C024000200240002402402F
:101140000AB1816170470904FBE7000001480068AB
:10115000704700000000002002480168491C01603F
:1011600070470000000000200B4810B5016841F4F2
:1011700000710160016841F480610160016841F41F
:1011800080710160032000F09BF8002000F006F859
:1011900000F03EF8002010BD003C024010B50146B2
:1011A00088B00022362000F06BF8362000F05CF8A2
:1011B00013480024016841F010010160006805A98E
:1011C00000F010000690684600F090F900F0B4F9C5
:1011D0000C494000B0FBF1F10C480B4A491E02607B
:1011E00040F2E732C0E90324C0E9011400F051FCE9
:1011F00010B1012008B010BD044800F066FCF9E70A
:101200004038024040420F0000100040584100208A
:1012100010B5032000F054F8002211466FF00B00C7
:1012200000F02EF8002211466FF00A0000F028F8B6
:10123000002211466FF0090000F022F8002211464A
:10124000501F00F01DF800221146101F00F018F882
:1012500000220F21901E00F013F800220F21BDE89C
:101260001040501E00F00CB800F01F020121914008
:101270004009800000F1E020C0F800117047000034
:10128000F0B40E4B1B680C46C3F30223C3F10705F1
:10129000042D00D90425191D072901D2002300E0DF
:1012A000DB1E012606FA05F1491E214099409E40A9
:1012B000761E16403143F0BC01F0AEBB0CED00E0F1
:1012C000064900F0070208684FF6FF03184040EA9D
:1012D0000220034A10430860704700000CED00E054
:1012E0000000FA052DE9F8431E48016841F08051DD
:1012F00001600068012600F080500090300490FAF0
:10130000A0F0194FB0FA80F047F82060FFF71EFFF9
:1013100005464FF47A78154C05E000BFFFF716FF3D
:10132000401B404515D86068C003F7D54FF4003026
:1013300090FAA0F0B0FA80F047F82060FFF706FFBF
:101340000546464608E000BFFFF700FF401BB042DD
:1013500002D90320BDE8F88360688003F4D500203B
:10136000F8E700004038024000000E4200700040E4
:101370002DE9F047DFF8649105460F46D9F80000E3
:1013800000F00F01F8B28046B94208D2014689F850
:101390000010D9F8000000F00F00B84274D128788E
:1013A0004F4C800705D52068A96820F0F00008435D
:1013B00020602878C00759D0494968680839012851
:1013C0001AD002281BD0032819D0096889070029E0
:1013D0005ADA216821F0030101432160FFF7B6FECC
:1013E0006968064641F28830012911D002291DD0D2
:1013F0000329824627D035E009688903E7E70968B1
:101400008901E4E7FFF7A2FE811B514501D926E0DF
:1014100082462068C0F381000128F3D126E000BF96
:10142000FFF794FE811B514501D918E082462068E0
:10143000C0F381000228F3D118E000BFFFF786FE59
:10144000811B51450BD82068C0F381000328F5D1DA
:101450000CE000BFFFF77AFE811B514502D9032043
:10146000BDE8F087206810F00C0FF3D1D9F8001018
:10147000484601F00F01B94208D980F800800068A1
:1014800000F00F00B84201D00120E9E728784007BA
:1014900005D52068E96820F4E050084320602878EA
:1014A000000706D52068296920F4604040EAC100A1
:1014B000206000F071F82168F02292FAA2F201F0A7
:1014C000F001B2FA82F2D140064A515CC8400649A6
:1014D00008600020FFF762FE0020C1E7003C0240E8
:1014E00008380240F8400008040000200F22026083
:1014F0000C4A136803F003034360136803F0F0031E
:101500008360136803F4E053C36012684FF4E05340
:1015100003EAD20202610448006800F00F0008608C
:101520007047000008380240003C02400148006853
:101530007047000004000020084809490068096855
:101540004FF4E05292FAA2F201F4E051B2FA82F2C0
:10155000D140044A515CC84070470000040000209C
:1015600008380240F840000808480949006809683E
:101570004FF4604292FAA2F201F46041B2FA82F2B0
:10158000D140044A515CC84070470000040000206C
:1015900008380240F840000830B51948006810F0DB
:1015A0000C01184812D0184C04290ED008290DD16E
:1015B0001349091F0A6802F03F030A68550247F6FB
:1015C000C07204D5B4FBF3F003E0204630BDB0FB9D
:1015D000F3F00B680968134092FAA2F2B2FA82F2B1
:1015E000D34058434FF4403292FAA2F201F4403112
:1015F000B2FA82F2D140491C4900B0FBF1F030BD93
:10160000083802400024F400001BB7002DE9F84F11
:101610000446DFF8CC820078A8F1040BC007ABF1D8
:10162000040537D0D8F800104046C1F381010129E4
:1016300008D00068C0F3810002280AD1DBF800005E
:10164000400206D52868800324D56068002878D039
:1016500020E0A3492079891F0870606868B1FFF70E
:1016600075FD064605E000BFFFF770FD801B64288E
:1016700068D828688003F7D50CE0FFF767FD0646B9
:1016800005E000BFFFF762FD801B6428F0D82868E2
:101690008003F7D42078934E80074FF0010A4FF073
:1016A000000742D5D8F80010404611F00C0F08D0C2
:1016B0000068C0F3810002280AD1DBF80000400274
:1016C00006D42868800714D5E068012839D110E0D5
:1016D000E068D8B1C6F800A0FFF738FD814605E004
:1016E000FFF734FDA0EB09000228C1D82868800765
:1016F000F6D52868F82292FAA2F22169B2FA82F2AB
:1017000020F0F8009140084328600EE03760FFF7B2
:101710001DFD814606E000BFFFF718FDA0EB0900A4
:1017200002280FD828688007F6D42078000728D52B
:101730006D486169A1B1C0F800A0FFF707FD8146BF
:1017400008E0CAE079E000BFFFF700FDA0EB090068
:10175000022872D862486C3000688007F4D510E027
:101760000760FFF7F3FC814606E000BFFFF7EEFCE1
:10177000A0EB0900022860D859486C300068800747
:10178000F4D42078400749D555483830016841F0F5
:1017900080510160006800F080500090534801685B
:1017A00041F480710160FFF7D1FC814606E000BF83
:1017B000FFF7CCFCA0EB090002283ED84B4800689C
:1017C000C005F5D5DFF81891207A09F1680989F884
:1017D0000000A06888B1FFF7B9FC009008E000BFE6
:1017E000FFF7B4FC0099411A41F2883081426CD86D
:1017F000D9F800008007F3D510E0FFF7A7FC0090B0
:1018000008E000BFFFF7A2FC0099411A41F28830BE
:1018100081425AD8D9F800008007F3D4A069E0B318
:10182000D8F80010C1F38101022956D0022837668A
:1018300004D0FFF78BFC04464AE046E0FFF786FC45
:10184000074604E0FFF782FCC01B02283DD8286849
:101850008001F7D4D4E90701084347F6C07292FA31
:10186000A2F2616AB2FA82F29140A26A4FF0FF33AB
:1018700003EB52024FF4403393FAA3F3B3FA83F32A
:101880009A40114308434FF0706292FAA2F2E16A63
:10189000B2FA82F29140084300E01CE0CBF800006D
:1018A000C6F860A0FFF752FC044604E0FFF74EFCC8
:1018B000001B022809D828688001F7D50BE000BF7B
:1018C000FFF744FC001B022802D90320BDE8F88F73
:1018D00028688001F4D40020F8E70120F6E7000032
:1018E0000838024000004742800E47420070004026
:1018F00070B5040005D00025A56294F8510010B120
:1019000006E0012070BD84F85050204600F030F809
:10191000022084F851002068016821F04001016034
:10192000D4E901010843D4E9031211430843616972
:101930000843218B01F400710843E1690843216ADF
:101940000843A16A084321680860A069042101EAEC
:101950001040616A0843216848602068C16921F429
:101960000061C1616565012084F85100002070BDEF
:1019700000B500680E4987B0884217D10D48002194
:10198000026842F480120260006800F48010059042
:101990004FF4607000900220CDE901010320039014
:1019A0000520049069460448FFF7E4FA07B000BD3B
:1019B0000050014044380240001402404FF0E02142
:1019C0000428086903D020F004000861704740F043
:1019D0000400FAE710B5401EB0F1807F01D301206A
:1019E00010BD4FF0E02460610F21601701F014F882
:1019F0000020A06107202061002010BD70477047C3
:101A000030B590F83820012A19D0012200F8382F7B
:101A100002234370D1E900342343D1E902452C432A
:101A200023430C6923434C69896923430B4350F8D2
:101A3000381C4B64427000210170084630BD022002
:101A400030BD30B590F83820012A20D0012280F82E
:101A50003820022380F8393003685C6824F0700471
:101A60005C6003685C680D682C435C6003689C687C
:101A700024F080049C6003689C6849680C439C6067
:101A800080F83920002180F83810084630BD022047
:101A900030BD10B5040003D094F8390010B107E050
:101AA000012010BD002084F83800204600F00CF81A
:101AB000022084F83900211D206801F00DF9012071
:101AC00084F83900002010BD70470168CA6842F0F0
:101AD0000102CA600068016841F001010160002054
:101AE0007047704770B50446006801694FF0000503
:101AF000C943890715D4C168C943890711D4E91EB0
:101B0000016101202076206880698007204602D08C
:101B1000FFF7E7FF04E000F01DF9204600F0ECF9C4
:101B2000257620680169C943490717D4C168C943AC
:101B3000490713D46FF00401016102202076206868
:101B4000806910F4407F204602D0FFF7CAFF04E00E
:101B500000F000F9204600F0CFF9257620680169F1
:101B6000C943090716D4C168C943090712D46FF0E5
:101B700008010161042020762068C06980072046A2
:101B800002D0FFF7AEFF04E000F0E4F8204600F0DA
:101B9000B3F9257620680169C943C90617D4C1681D
:101BA000C943C90613D46FF01001016108202076E3
:101BB0002068C06910F4407F204602D0FFF791FFF3
:101BC00004E000F0C7F8204600F096F9257620687A
:101BD0000169C943C90708D1C168C943C90704D10C
:101BE000891E0161204600F0A5F920680169C943FA
:101BF000090609D4C168C943090605D46FF08001FC
:101C000001612046FFF7FAFE20680169C9434906D1
:101C100009D4C168C943490605D46FF04001016188
:101C2000204600F091F920680169C94389060BD468
:101C3000C168C943890607D46FF0200101612046BD
:101C4000BDE87040FFF7DBBE70BD0000F0B5016875
:101C5000002402250126354885B0B1F1804F08D017
:101C6000334A91421CD130210091CDE9015469469B
:101C70003FE040F608410091CDE90154CDE903462B
:101C80006946FFF777F94FF400400090CDE9015421
:101C9000CDE9034669462748FFF76CF905B0F0BD6A
:101CA000254A914211D14FF440710091CDE9015480
:101CB0006946CDE90345FFF75DF94FF440500090C8
:101CC000CDE9015469461D4813E01D4A1D481E4FC9
:101CD000914211D10096CDE901546946CDE9034501
:101CE000FFF748F94FF4E0500090CDE90154694600
:101CF0003846CDE90345CFE7144A914208D1E421A3
:101D00000091CDE901540321CDE903416946C3E7C0
:101D10000F488142C2D14FF410700090CDE90154B8
:101D20000920CDE9034069463846B5E70004024082
:101D3000000400400000024000080040000C024087
:101D4000000C004000200240001C02400004014042
:101D500000180040704770B5044690F838000D46F2
:101D600001280DD0012684F83860022084F839005B
:101D700042B1042A18D0082A2AD00C2A4DD139E0C1
:101D8000022070BD206801F013F82068816941F0DD
:101D9000080181612068816921F004018161206866
:101DA00081692A69114311E0206801F02DF820684B
:101DB000816941F4006181612068816921F4806159
:101DC0008161206881692A6941EA0221816124E0F8
:101DD000206801F04BF82068C16941F00801C16139
:101DE0002068C16921F00401C1612068C1692A69C4
:101DF000114311E0206801F069F82068C16941F4DD
:101E00000061C1612068C16921F48061C1612068FD
:101E1000C1692A6941EA0221C16184F83960002060
:101E200084F8380070BD10B5040003D094F8390070
:101E300010B107E0012010BD002084F838002046D2
:101E400000F00CF8022084F83900211D206800F011
:101E500043FF012084F83900002010BD08B5016857
:101E60001F48B1F1804F0BD01E4A914210D101683A
:101E700041F002010160006800F00200009008BD1E
:101E8000016841F001010160006800F00100F5E720
:101E9000154A914207D1016841F0040101600068D0
:101EA00000F00400EAE7114A914207D1016841F0CD
:101EB00008010160006800F00800DFE70C4A914269
:101EC00002D10748001DD2E70A4A9142D7D10168E2
:101ED00041F040010160006800F04000CEE70000E2
:101EE000403802400004004000080040000C004060
:101EF00000040140001800407047000010B504467F
:101F00000068012200F048FF08492068884202D09A
:101F10000749884203D1416C41F400414164206883
:101F2000016841F001010160002010BD0000014086
:101F30000004014000680349884201D1FFF70CB951
:101F400070470000001000407047704770B502688D
:101F500004461068D168536910F00F0F50D003F099
:101F6000010501F4907635435DD0C20705D0CA055E
:101F700003D5E26B42F00102E263420705D5DA07BE
:101F800003D0E26B42F00202E263820705D5DA0772
:101F900003D0E26B42F00402E263020705D5DA07E0
:101FA00003D0E26B42F00802E263E26B002A33D016
:101FB000800604D5880602D5204600F0C5FF2068BB
:101FC0004069E16BC0F38010090700D428B32046B4
:101FD00000F0ACFF2068416949061AD5416921F03B
:101FE00040014161606BA0B11B490165606BFEF768
:101FF00066FE002810D0606B016DBDE87040084798
:10200000830610D58B060ED52046BDE8704000F043
:102010009BBF2046FFF799FF70BD2046FFF795FF55
:102020000020E06370BD030606D50B0604D52046EC
:10203000BDE8704001F024B94006F3D54806F1D55B
:10204000D168204621F04001D160202184F8391068
:1020500000F065F970BD00001D2F000870B5040088
:1020600004D094F83900002510B106E0012070BDBD
:1020700084F83850204600F023F8242084F83900F2
:102080002068C16821F40051C160204600F0A2FF21
:102090002068016921F4904101612068416921F0C3
:1020A0002A0141612068C16841F40051C160E563C3
:1020B000202084F8390084F83A00002070BD000028
:1020C0002DE9F04F0546D0F800C00220DFF81C8251
:1020D0000024DFF81CA20121032207238706460201
:1020E00087B0C4453BD1DAF8008048F01008CAF840
:1020F0000080DAF800C00DF104080CF0100CCDF8E7
:1021000014C04FF0C00CCDF800C088E80F0069463D
:102110007848FEF72FFFDFF8E48177494046C8F89A
:102120000010C0E90174C0E90346C8F81440C8F8BB
:102130001840C8F81C40C8F82040C8F82440FEF7F2
:10214000A5FE08B1FEF719FAC5F834800022052172
:102150002520C8F83850FFF793F8252046E0DFF82F
:10216000A081DFF88C91DFF89CB1A9F10409C44586
:1021700041D1D9F8008048F40038C9F80080D9F876
:1021800000C00DF104080CF4003CCDF814C04FF071
:10219000600CCDF800C088E80F0069465846FEF78D
:1021A000E9FEDFF85881584908F160084046C8F850
:1021B0000010C0E90174C0E90346C8F81440C8F82B
:1021C0001840C8F81C40C8F82040C8F82440FEF762
:1021D0005DFE08B1FEF7D1F9C5F834800022114642
:1021E0002620C8F83850FFF74BF82620FFF73CF8B8
:1021F00007B0BDE8F08FDFF81481C4453ED1D9F8AF
:10220000008048F48028C9F80080D9F800C00DF19A
:1022100004080CF4802CCDF814C04FF4407CCDF8A9
:1022200000C088E80F0069465846FEF7A3FEDFF8B5
:10223000CC80354908F1C00860394046C8F8001024
:10224000C0E90174C0E90346C8F81440C8F8184052
:10225000C8F81C40C8F82040C8F82440FEF716FE15
:1022600008B1FEF78AF9C5F834800022114627200C
:10227000C8F83850FFF704F82720B7E7244B9C45EF
:10228000B6D1DAF8007047F02007CAF80070DAF823
:10229000003001AF03F0200305934FF48443009313
:1022A00087E807000820049069461A48FEF762FE96
:1022B0001148194F183838608005C7E90104C7E98B
:1022C00003467C61BC61FC613C6238467C62FEF77F
:1022D000DDFD08B1FEF751F96F63002205214720AB
:1022E000BD63FEF7CDFF472080E7000000100140EE
:1022F000443802400004024040640240C83F0020CD
:1023000000440040000C0240886002400048004049
:102310000014014000180240E84000207047704758
:10232000FEE700000F4810B50D490160052141602E
:1023300000214FF400328160C0E903125201C0E96C
:1023400005210122C0E9072141628162C162FEF7D5
:1023500049FA002803D0BDE81040FEF70EB910BDC1
:1023600000640040EC410020104810B50E490160A7
:102370000521416000214FF04072C0E902124FF484
:10238000003202615201C0E905210122C0E90721A2
:1023900041628162C162FEF725FA002803D0BDE8E0
:1023A0001040FEF7EAB810BD006800402C42002043
:1023B000194808B5016841F480010160016801F421
:1023C00080010091016841F4001101600068002261
:1023D00000F40010009005210C20FEF751FF0C20A6
:1023E000FEF742FF002205211020FEF749FF1020D2
:1023F000FEF73AFF002205213920FEF741FF392080
:10240000FEF732FF002205213A20FEF739FFBDE832
:1024100008403A20FEF728BF3038024000B585B0AA
:10242000142206496846FDF73DFF0021684601F089
:1024300035F80349086005B000BD000008410008F8
:10244000640000202DE9F0474F4886B00024016861
:1024500041F010010160016801F01001059101686F
:1024600041F002010160016801F00201059101687B
:1024700041F040010160016801F0400105910168EF
:1024800041F008010160016801F00801059101684F
:1024900041F001010160016801F00101059101684D
:1024A00041F480710160016801F480710591016857
:1024B00041F080010160016801F08001059101682F
:1024C00041F0200101600068DFF8C08000F02000CA
:1024D0000590002288214046FEF732FE01220421A9
:1024E0004046FEF72DFEDFF8A8904FF4005600227C
:1024F00031464846FEF724FEDFF898A044F2400734
:10250000002239465046FEF71BFE8C200090012524
:10251000CDE90154694640460394FEF72BFD0220A5
:1025200000901D48CDE9010569464046FEF722FDB1
:102530000096CDE90154694648460394FEF71AFD1A
:1025400004208DE8310069461448FEF713FD802011
:10255000CDE90004694612480294FEF70BFD00978E
:10256000CDE90154694650460394FEF703FD0D2062
:1025700000900C48CDE9010469460B48FEF7FAFCCF
:1025800006B0BDE8F087000030380240001002407D
:102590000018024000140240000021100004024014
:1025A000000C02400000111000000240104810B55D
:1025B0000E4901604FF48271416000218160C16069
:1025C0004FF400720161C0E905123022C0E9072111
:1025D000416281620A21C162FFF78AF9002803D0B3
:1025E000BDE81040FDF7C9BF10BD0000005001401C
:1025F0009441002010B5174888B015490160592151
:102600000024C0E9011440F6C311C0E90314FFF728
:102610000AFC08B1FDF7B1FF602000904FF47A701A
:10262000CDE90104002269460A480494FFF793FBB0
:1026300008B1FDF7A2FF042269460648FFF78BFBAD
:1026400008B1FDF79AFF0348FFF700FB08B010BD83
:10265000001800408C3E002010B521488AB04FF091
:1026600080410024C0E900148460C4600461FFF765
:10267000DAFB08B1FDF781FF079407A91848089411
:10268000FFF7DFF908B1FDF778FF6020CDE900041E
:1026900002940022694612480494FFF75CFB08B1DB
:1026A000FDF76BFF042269460D48FFF754FB08B1A4
:1026B000FDF763FF082269460948FFF74CFB08B1A4
:1026C000FDF75BFF0C2269460548FFF744FB08B1A4
:1026D000FDF753FF0248FFF7B9FA0AB010BD00003A
:1026E000603D002010B51A488AB018490160B32136
:1026F0000024C0E90114C4600461FFF794FB08B131
:10270000FDF73BFF079407A911480894FFF799F9D3
:1027100008B1FDF732FF6020CDE9000402940022E9
:1027200069460B480494FFF716FB08B1FDF725FF37
:10273000042269460648FFF70EFB08B1FDF71DFFAE
:102740000348FFF783FA0AB010BD00000004004000
:102750009C3D002010B521488AB01F490024C0E9E3
:1027600000148460C4600461FFF75DFB08B1FDF7ED
:1027700004FF079407A919480894FFF762F908B104
:10278000FDF7FBFE6020CDE90004029400226946BB
:1027900012480494FFF7DFFA08B1FDF7EEFE0422B9
:1027A00069460E48FFF7D7FA08B1FDF7E6FE0822A2
:1027B00069460A48FFF7CFFA08B1FDF7DEFE0C22A2
:1027C00069460648FFF7C7FA08B1FDF7D6FE034889
:1027D000FFF73CFA0AB010BD00080040D83D0020C9
:1027E00010B524488AB02249016059210024C0E96B
:1027F00001144FF4FA61C0E90314FFF714FB08B1A8
:10280000FDF7BBFE079407A91A480894FFF719F9CA
:1028100008B1FDF7B2FE602000904FF47A70CDE968
:1028200001040022694613480494FFF794FA08B1A2
:10283000FDF7A3FE042269460E48FFF78CFA08B1A3
:10284000FDF79BFE082269460A480194FFF783FAC8
:1028500008B1FDF792FE0C2269460648FFF77BFAA5
:1028600008B1FDF78AFE0348FFF7F0F90AB010BD82
:10287000000C0040143E002010B52B4890B02949B0
:102880000024C0E900148460C46004614461FFF75F
:10289000CAFA08B1FDF771FE0E940EA922480F94F2
:1028A000FFF7CFF808B1FDF768FE07940894099484
:1028B0004FF400500A94CDE90B4007A91A480D9433
:1028C000FFF79EF808B1FDF758FE6020CDE900043F
:1028D00002940394049405940022694612480694D5
:1028E000FFF739FA08B1FDF748FE042269460E48A1
:1028F000FFF731FA08B1FDF740FE082269460A48A1
:10290000FFF729FA08B1FDF738FE0C2269460648A0
:10291000FFF721FA08B1FDF730FE0348FFF796F9FB
:1029200010B010BD00040140503E00200D4810B50D
:102930000B4901600C49416000214FF480628160C5
:10294000C0E903120C22C0E90521C161FFF786FB33
:10295000002803D0BDE81040FDF70FBE10BD0000F9
:1029600000100140C83E0020A08601000C4810B5B0
:102970000A4901604FF4E1314160002181600C227D
:10298000C160C0E904128161C161FFF767FB0028E3
:1029900003D0BDE81040FDF7F0BD10BD004400407D
:1029A000083F00200C4810B50A4901604FF4E1319E
:1029B0004160002181600C22C160C0E90412816184
:1029C000C161FFF74BFB002803D0BDE81040FDF7C5
:1029D000D4BD10BD00480040483F00200C4810B551
:1029E0000A4901604FF4E1314160002181600C220D
:1029F000C160C0E904128161C161FFF72FFB0028AB
:102A000003D0BDE81040FDF7B8BD10BD0014014073
:102A1000883F0020FEE770470907090E002806DA04
:102A200000F00F0000F1E02080F8141D704700F165
:102A3000E02080F80014704730B4034C4466034C27
:102A4000846630BC00F028BE99360008A73600081E
:102A50002DED028B82B000215448FFF74FFA04217C
:102A60005248FFF74BFA08215048FFF747FA0C216C
:102A70004E48FFF743FA4E4800F0CAFC4D4800F0BC
:102A8000C7FC00214A48FDF7C1FF00214948FDF776
:102A9000BDFF00249FED488ADFED488A484D44F68B
:102AA000206600BF04EBC40000EB400005EB800093
:102AB000B0EE481AF0EE680AB7EE080A324633461E
:102AC0000321FFF7B9FF641C042CEBDB37494FF4FB
:102AD0007A700A6850630A6890630968C86308647A
:102AE0006420FEF73BFAAA46DFF8D8B0364D002442
:102AF0005F46564655F8240000EE100A04EB4400E9
:102B000000EBC400F8EEC00A37F9200000EE100A0E
:102B100004EBC40000EB4000B8EEC00A06EB8000F6
:102B200000F0D8FC641C042CE4DB96ED0F0A0024B2
:102B3000BDEEC00A10EE100A96ED450A07B2BDEED2
:102B4000C00A204667F30F0010EE101A02149046D8
:102B50000EB2214666F30F014FEA2149334639464A
:102B60001348CDF8009000F0E9FE3346424639465E
:102B70001048CDF8009000F0E1FE00231A461946F7
:102B80000B48009400F000FF00231A46194609483C
:102B9000009400F0F9FE0D48C5E900044042C5E983
:102BA00002040A2000F064FCA1E70000143E0020AB
:102BB000EC4100202C42002000000000CDCCCC3D98
:102BC000C84300206C42002048410020D4FEFFFF93
:102BD00000F05ABC30B5264893B00025016841F09A
:102BE00080510160006800F0805011902148016818
:102BF00041F4404101600068022400F4404011901B
:102C00000120009001908005CDE906400620089043
:102C1000B420CDE9090404200B906846FEF7F6FCC9
:102C200000B1FEE7FEF75EFB00B1FEE70CA90F2046
:102C300081E831004FF4A0500F904FF48050109075
:102C400005210CA8FEF794FB00B1FEE7FEF76EFC31
:102C50004FF47A71B0FBF1F0FEF7BCFE0420FEF7F2
:102C6000ADFE00220F21501EFEF70AFB13B030BD4F
:102C700040380240007000401048016841F4700183
:102C800001600F48016841F0010101600C4A002118
:102C90000832116002680B4B1A400260031D0A4A99
:102CA0001A60026822F48022026005480C3001603C
:102CB00002495806803908607047000088ED00E03E
:102CC00000380240FFFFF6FE103000240148FEF7F6
:102CD00009BF000058410020F0B50268234B244D85
:102CE000244E254F254C4FF0804C984209D060452A
:102CF00007D0A84205D0B04203D0B84201D0A042CC
:102D000004D122F0700E4A6842EA0E0298421BD0AB
:102D1000604519D0A84217D0B04215D0B84213D0A0
:102D2000A04211D0164DA8420ED0164DA8420BD08D
:102D3000154DA84208D0154DA84205D0144DA84203
:102D400002D0144DA84203D122F44075CA682A4328
:102D500002608A68C2620A688262984201D0A04218
:102D600001D10969016301214161F0BD0000014009
:102D70000004004000080040000C00400004014036
:102D8000004001400044014000480140001800405C
:102D9000001C00400020004010B50123046A8B4055
:102DA0009C430462036A8A401343036210BD00001F
:102DB00030B5026A22F001020262026A4368846945
:102DC0000D6824F07304254322F002048A6822432C
:102DD0000B4CA04202D00B4CA0420BD122F00804B5
:102DE000CA6823F4407322434C6922F004021C4356
:102DF0008B6923434360856149684163026230BD4A
:102E0000000001400004014030B5026A22F01002C7
:102E10000262026A436884690D6824F4E64444EA65
:102E200005248D6822F0200242EA05120D4DA842C9
:102E300002D00D4DA8420ED1CD6822F0800242EAA8
:102E400005124D6923F4406343EA85038D6922F03E
:102E5000400243EA850343608461496881630262FA
:102E600030BD0000000001400004014030B5026A9E
:102E700022F480720262036A4268C46923F4007318
:102E800024F073050C682C438D6843EA05230D4D2F
:102E9000A84202D00C4DA8420ED1CD6823F40063A5
:102EA00043EA05234D6922F4405242EA05128D6936
:102EB00023F4806342EA05124260C4614968C16339
:102EC000036230BD000001400004014030B5026AD9
:102ED00022F480520262046A4268C3690D6823F4D6
:102EE000E64343EA05238D6824F4005444EA05349C
:102EF000084DA84202D0084DA84204D14D6922F4E1
:102F0000804242EA85124260C361496801640462FA
:102F100030BD0000000001400004014010B5806B8E
:102F20000021C185C184FFF710F810BD0168CA688F
:102F300022F49072CA6001684A6922F001024A6173
:102F4000202180F83A10704710B590F83A102229E5
:102F500001D0022010BD8168B1F5805F11D00169F8
:102F6000002901681FD0496801F07F03816A4A1C6B
:102F700082620B70C18D491E0904090CC18518D0ED
:102F800026E00269816A002A0268526805D0D2B23E
:102F90000A80816A491C8162ECE7C2F308020A8058
:102FA000816A891CF7E74A68816A4B1C83620A7050
:102FB000E0E70168CA6822F49072CA6001684A6951
:102FC00022F001024A61202180F83A10FFF7A6F9A9
:102FD000002010BD2DE9F04104460068016921F48C
:102FE0004052E168114301612168C86849F20C62EE
:102FF00090432369A268E5691A4363692B431A4326
:103000000243CA602168486920F44072A0691043F5
:103010004861E1696425B1F5004F9748974A2168F6
:103020004FF032083FD0914201D081427CD1FEF76F
:103030009BFA00EBC00101EB001061688900B0FB56
:10304000F1F6FEF791FA00EBC00101EB00106168A8
:103050008900B0FBF1F0B0FBF5F06FF018014843C8
:1030600006EB800108EB0110B0FBF5F000F0F00674
:10307000FEF77AFA00EBC00101EB001061688900ED
:10308000B0FBF1F0B0FBF5F006EB0016FEF76CFAC2
:1030900000EBC00101EB001061688900B0FBF1F7A3
:1030A000FEF762FAD2E0914201D081423DD1FEF7B3
:1030B0005BFA00EBC00101EB001061684900B0FB56
:1030C000F1F0B0FBF5F00601FEF74EFA00EBC0019F
:1030D00001EB001061684900B0FBF1F7FEF744FA1C
:1030E00000EBC00101EB001061684900B0FBF1F09A
:1030F000B0FBF5F06FF01801484307EB800108EBD7
:10310000C100B0FBF5F000F0F80006EB4006FEF75A
:103110002BFA00EBC00101EB001061684900B0FB25
:10312000F1F7FEF721FA3CE055E0FEF705FA00EB77
:10313000C00101EB001061684900B0FBF1F0B0FB89
:10314000F5F00601FEF7F8F900EBC00101EB001005
:1031500061684900B0FBF1F7FEF7EEF900EBC00142
:1031600001EB001061684900B0FBF1F0B0FBF5F035
:103170006FF01801484307EB800108EBC100B0FB7A
:10318000F5F000F0F80006EB4006FEF7D5F900EB8D
:10319000C00101EB001061684900B0FBF1F7FEF7D8
:1031A000CBF900EBC00101EB001061684900B0FBF6
:1031B000F1F0B0FBF5F06FF01801484307EB800128
:1031C00008EBC100B0FBF5F000F0070021683044C7
:1031D0008860BDE8F081FEF7AFF900EBC00101EBBC
:1031E000001061688900B0FBF1F6FEF7A5F900EB6D
:1031F000C00101EB001061688900B0FBF1F0B0FB89
:10320000F5F06FF01801484306EB800108EB011060
:10321000B0FBF5F000F0F006FEF78EF900EBC00110
:1032200001EB001061688900B0FBF1F0B0FBF5F034
:1032300006EB0016FEF780F900EBC00101EB001071
:1032400061688900B0FBF1F7FEF776F900EBC00189
:1032500001EB001061688900B0FBF1F0B0FBF5F004
:103260006FF01801484307EB800108EB0110B0FB39
:10327000F5F000F00F00A9E7001401400010014034
:1032800090F83910212901D0022070478168B1F5EA
:10329000805F016A0BD04A1C0262026809785160A3
:1032A000C18C491E0904090CC1840ED017E009889D
:1032B0000268C1F30801516001690029016A02D066
:1032C000491C0162ECE7891CFBE70168CA6822F02F
:1032D0008002CA600068C16841F04001C1600020FE
:1032E000704700000148FEF731BE0000C83E0020D4
:1032F0000148FEF72BBE0000083F00200148FEF702
:1033000025BE0000483F00200148FEF71FBE000018
:10331000883F0020FEE702E008C8121F08C1002A0B
:10332000FAD170477047002001E001C1121F002A46
:10333000FBD17047D0ED000AF4EEC00AF1EE10FAAE
:1033400001DD80ED000AD0ED000AB1EE400AF4EE96
:10335000C00AF1EE10FA01D280ED000A704710B5F4
:10336000048944814A6B928A52BA02814B6BDB8A90
:103370005BBA03804B6B1B8B5BBA43808380496BCA
:10338000131BB3F5805F897E8171016901DD491EE0
:1033900003E013F5805F01DA491C016102EB413162
:1033A0008289891A416110BD496B898A49BA0181B4
:1033B00081817047FDF7D8FEFFF70CFCFFF742F85C
:1033C000FEF7F6FFFEF7AEFFFFF7B0FAFFF7EEF8F5
:1033D000FFF7E8FAFFF702FBFEF7C6FFFFF700FA78
:1033E000FFF73AF9FFF77EF9FFF7B4F9FFF744FA70
:1033F000FFF700F9FFF7BAFAFFF710F800F03FF80F
:10340000FEE701460020842900D0C81C7047000058
:1034100030B58BB004460020012103900490CDE923
:1034200006010E25CDE90815059000900190029047
:1034300069462046FDF7A2F8694620460595FDF746
:103440009DF80848844203D1074820631C3060631C
:103450000648844204D10448403020631C30606335
:103460000BB030BDEC4100201C4300202C4200205A
:1034700010B500B9012000F063FB002010BD10B5AD
:1034800000F092FB002010BD10B500F05BFD01289C
:1034900003D0BDE8104000F061BC10BD30B504465B
:1034A00085B00D46B0F90800FFF7ABFF002104AA74
:1034B0000090CDE901210391208A2B4682B2D4E904
:1034C000001000F061FC012802D0002005B030BDE2
:1034D0000498FBE700B530EEC01A80ED080AC0ED95
:1034E000050A80ED0B1AD0ED141A01469FED692AEA
:1034F00030EEC00AF5EEC01AB1EE400AF1EE10FA55
:103500000ED0B5EEC01AF1EE10FA02DDF0EE410A6F
:1035100001E0F0EE400AF4EEE10AF1EE10FA12DCFE
:10352000D1ED150AF5EEC00AF1EE10FA0ED0B5EEA7
:10353000C01AF1EE10FA01DDB0EE410AB4EEE00A75
:10354000F1EE10FA02D2B0EE420A00BD886D01F130
:103550003402032802D0042838D07AE091ED000A22
:10356000104620EE010A81ED0C0A91ED0D0AD1ED15
:10357000010A00EE810A81ED0D0A91ED0A0AD1EDF2
:10358000020A31EE400A20EE200A81ED0E0A91ED8A
:10359000180AB8EE400AFFF7CDFE91ED0C0AD1ED06
:1035A0000D0A01F13C0030EE200AD1ED0E0A30EE9A
:1035B000200A81ED0F0A91ED170AB8EE400AFFF7D5
:1035C000B9FE91ED0F0A81ED100A42E091ED0A0A71
:1035D000D1ED001A104671EE400A60EEA10AC1ED6D
:1035E0000C0AD1ED010A60EE810AC1ED0D0AF0EE80
:1035F000000A00EE601A91ED090AD1ED020A31EEDF
:10360000000A20EE200A81ED0E0A91ED180AB8EEAC
:10361000400AFFF78FFE91ED0C0AD1ED0D0A01F182
:10362000480030EE200AD1ED0E0A30EE200A81ED7E
:10363000110AD1ED130A30EE800A81ED120A91EDE4
:10364000170AB8EE400AFFF775FE91ED120A81EDF8
:10365000130A91ED0A0A81ED090A91ED0B0A81ED39
:103660000A0A91ED070A81ED060A91ED080A81ED3B
:10367000070A91ED040A81ED030A91ED050A81ED37
:10368000040A886D032802D091ED120A00BD91ED65
:103690000F0A00BD0000000000F1580C8CE80E007D
:1036A00080EC030A704780EC030A704770B50B4C3E
:1036B000054620684560E0682168854205D2606B58
:1036C000BDE87040091D00F0A5B9206B091D00F090
:1036D000A1F9A06A854200D2A56270BD0800002051
:1036E00070B5124E124C1AE000F092FA3068D0B168
:1036F00000F09CFC00F0B2F9F068C568281D00F0ED
:1037000069F9A068401EA0606068401E606000F01B
:10371000C5F9286B00F0D6F9284600F0D3F96068A7
:103720000028E1D170BD00F081FCF8E738010020ED
:103730000800002010484FF47051420706D0C01D09
:103740000D4920F00700411AC1F570510B4A0023C2
:103750000144C2E900030839103A21F00701116061
:103760004B600B600B1AC0E9001393604FF00040F0
:103770005360D06070470000600100205C000020B2
:10378000074C4FF08056074DFFF7AAFF206801282D
:10379000FAD92E60BFF34F8FBFF36F8FF4E70000AD
:1037A0007000002004ED00E030B5114900E0114642
:1037B0000A688242FBD34B685C18844203D140689C
:1037C00018444860084643681C18944209D1084CC4
:1037D000103C2468A24209D052681A4442600A6828
:1037E00012680260814200D0086030BD0460F9E7D1
:1037F0005C0000200648016B096829B1016BC968AB
:10380000C9684968816270474FF0FF31FAE70000EC
:103810000800002008484068401C4FF0500080F32A
:10382000118804D0BFF34F8FBFF36F8FFEE7BFF354
:103830004F8FBFF36F8FFEE7400000202DE9F0416E
:103840000546002700F0E4F9314E306808B9FFF76B
:1038500071FFF06805424BD1C5B3083568070ED03B
:1038600005F00700C0F108000544680707D05020A4
:1038700080F31188BFF34F8FBFF36F8FFEE72DB337
:103880007068854234D82248103001460C6801E047
:1038900020460C466168A94202D221680029F7D16E
:1038A00031688C4224D0076821680160606808375D
:1038B000411B10290FD96019420708D0502080F30E
:1038C0001188BFF34F8FBFF36F8FFEE710E04160A9
:1038D0006560FFF769FF61687068401A7060B268E0
:1038E000904200D2B060F06801430020C4E90001BA
:1038F00000F09CFB780707D0502080F31188BFF3BD
:103900004F8FBFF36F8FFEE73846BDE8F0810000B0
:103910004C00002010B5031F4FF080741C601B1F6B
:103920001960191F044B0B6014390A60091F6FF0EE
:10393000020244380A6010BD15380008F0B4066B66
:103940004FF40075049C3560066B0025B560066B6E
:10395000F560066B08253561066B0D0A3575056B3C
:103960006975056B110AA975016BCA75026B190A95
:103970001176016B4B76026B210A9176016BCC7646
:10398000F0BC0A21FDF7C6B8F0B4066B40F2FF1593
:10399000049C3560066B0025B560066BF560066B10
:1039A00008253561066B0D0A3575056B6975056B64
:1039B000110AA975016BCA75026B190A1176016BA0
:1039C0004B76026B210A9176016BCC76F0BC0A2112
:1039D000FDF7A0B8D0E9013201699A60D0E901236E
:1039E0005A604A68824201D182684A6000220261BC
:1039F0000868401E0860704700F108014FF0FF3270
:103A0000C0E90112C160016100210160704700211D
:103A10000161704730B50B685A1C02D000F10802F2
:103A200002E0026904E02246546825689D42FAD902
:103A300053684B6099608A60516008610168491C55
:103A4000016030BD42684A6093688B60936859603A
:103A5000916008610168491C01607047502080F343
:103A60001188BFF34F8FBFF36F8F0A494868401C1E
:103A7000486001280CD10848006810F0FF0F07D0FB
:103A8000502080F31188BFF34F8FBFF36F8FFEE795
:103A9000704700004000002004ED00E0084948683D
:103AA00028B1401E486001D180F311887047502032
:103AB00080F31188BFF34F8FBFF36F8FFEE70000D5
:103AC0004000002070B5002827D0144DA0F1080454
:103AD0006168E868014207D1502080F31188BFF384
:103AE0004F8FBFF36F8FFEE722683AB1502080F30B
:103AF0001188BFF34F8FBFF36F8FFEE78143616083
:103B000000F086F860686968084468602046FFF73E
:103B10004BFEBDE8704000F089BA70BD4C0000203B
:103B200006484FF47A710068B0FBF1F14FF0E020E5
:103B3000491E416107210161704700000400002017
:103B400070B5020022D0164CE06A38B1502080F3E4
:103B50001188BFF34F8FBFF36F8FFEE700F058F867
:103B6000E06885182068001DFFF734FF38B9206829
:103B700090F82C100120884021698143216128465A
:103B8000FFF794FD00F052FA002807D105494FF0E5
:103B900080500860BFF34F8FBFF36F8F70BD000080
:103BA0000800002004ED00E01FB5002400940194FB
:103BB00002942346802212A11348039400F0E4F8F3
:103BC000012809D0002819D1502080F31188BFF3B3
:103BD0004F8FBFF36F8FFEE7502080F31188BFF344
:103BE0004F8FBFF36F8F09484FF0FF318162012182
:103BF0004161C460BDE81F4000F040B81FBD000037
:103C000049444C45000000008137000808000020AE
:103C10000248C16A491CC1627047000008000020C8
:103C20001448C16A11B10121C16170470021C1610D
:103C30000169B1FA81F1C1F11F0101EB81020E4965
:103C400051F822306BB101EB820101F108034A689F
:103C500052684A609A4201D152684A60D168016054
:103C60007047502080F31188BFF34F8FBFF36F8FE1
:103C7000FEE7000008000020700000201CB532485C
:103C80000168324A914207D1502080F31188BFF376
:103C90004F8FBFF36F8FFEE700682C49491E8842A3
:103CA00007D1502080F31188BFF34F8FBFF36F8F80
:103CB000FEE7274908780190FF20087008788DF802
:103CC00000009DF800009DF8002000F0F0009042F8
:103CD00007D0502080F31188BFF34F8FBFF36F8F51
:103CE000FEE79DF800001B4A00F05000107007200E
:103CF000906005E09DF800305B008DF80030401EBC
:103D00009DF800301B06F5D4000200F4E0609060DE
:103D1000019808700C482030016841F4700101607E
:103D2000016841F070410160FFF7FAFE0020506029
:103D3000FCF768FA0848016841F040410160FCF76F
:103D400051FA00201CBD000000ED00E071C20F41DF
:103D500000E400E04000002034EF00E010B5502007
:103D600080F31188BFF34F8FBFF36F8F00F0F8F827
:103D700018B104494FF080500860002080F311888A
:103D800010BD000004ED00E02DE9FF5F5FEA000BCD
:103D9000DDE90F900E9E15468A4609D0072E0FD3F7
:103DA000502080F31188BFF34F8FBFF36F8FFEE772
:103DB000502080F31188BFF34F8FBFF36F8FFEE762
:103DC000A900884610B90846FFF738FD07001ED045
:103DD0005C20FFF733FD0400384616D0A52241468B
:103DE0002063FCF771FA6FF00301206B01EB850192
:103DF000084420F0070778070CD0502080F3118882
:103E0000BFF34F8FBFF36F8FFEE7FFF75BFE4FF0FF
:103E1000FF348CE051463546002022180B5C82F8B6
:103E200034300A5C12B1401C1028F6D3002084F80C
:103E30004300072D00D30625E562C4E913508046F0
:103E4000201DFFF7E4FD04F11800FFF7E0FD2461F9
:103E5000C5F107016462A161C4F8548084F85880F8
:103E600059463846039AFFF755FD2060B9F1000F17
:103E700001D0C9F80040FFF7F1FD2F4DA868401CA4
:103E8000A8602868DFF8B48010B1686948B32DE0F5
:103E90002C60A868012829D15FF0000707EB870193
:103EA00008EB8100FFF7A8FD7F1C072FF6D32348FE
:103EB0008C30FFF7A1FD2148A030FFF79DFD1F4882
:103EC000B430FFF799FD1D48C830FFF795FD1B483A
:103ED000DC30FFF791FD19488C302863143068639B
:103EE00004E02868C06AB04200D82C60686A401CB0
:103EF00068626064E16A01202A6988401043286191
:103F000001EB810108EB8100211DFFF79BFD0124DE
:103F1000FFF7C4FD686950B12868C06AB04206D294
:103F2000074920070860BFF34F8FBFF36F8F04B0BE
:103F30002046BDE8F09F000008000020700000202F
:103F400004ED00E00548416919B1C06A18B10020CC
:103F500070470120704702207047000008000020D1
:103F60002DE9F0412F4C0026E06A40B1A069401CC9
:103F7000A061E06900B101263046BDE8F081E0684B
:103F8000401CE060E7689FB9206B006838B15020A2
:103F900080F31188BFF34F8FBFF36F8FFEE7206B65
:103FA000616B21636063206A401C2062FFF722FC82
:103FB000A06ADFF87480874209D3206B006880B163
:103FC000206BC068C568686887420DD2A06220680F
:103FD000C06A00EB800158F821000128C9D90126E8
:103FE000C7E74FF0FF30F1E7281DFFF7F3FCA86AA1
:103FF00018B105F11800FFF7EDFCE86A012122690C
:1040000081401143216100EB800108EB8100291DF3
:10401000FFF718FDE86A2168C96A8842CDD30126F6
:10402000CBE7000008000020700000202DE9F047D9
:104030002C4C0026E06A38B1FFF710FDE06A401E04
:10404000E062E06A40B147E0502080F31188BFF39E
:104050004F8FBFF36F8FFEE7A168234D012079B327
:10406000A5F1B40980462868E8B1E868C76807F197
:104070001800FFF7AFFC381DFFF7ACFCF96A2269A6
:1040800008FA01F01043206101EB810109EB810086
:10409000391DFFF7D7FCF86A2168C96A8842E2D364
:1040A000C4F81C80DFE7A06958B14546A06940B15B
:1040B000FFF756FF00B1E561A069401EA061F5E77A
:1040C0000AE0E069012807D10849012600070860D5
:1040D000BFF34F8FBFF36F8FFFF7E0FC3046BDE8B3
:1040E000F0870000080000202401002004ED00E01B
:1040F000000610160006101600000000010203045E
:1041000001020304060708091C410008512A00089F
:10411000000000000000000080000000646566618F
:10412000756C745461736B004841000800000020F6
:104130007000000016330008B8410008700000202D
:104140000849000026330008000000000024F400A5
:10415000000000000000000000000000000000005F
:10416000000000000000000000000000000000004F
:10417000000000000000000000000000000000003F
:10418000000000000000000000000000AAAAAAAA87
:10419000000000000000000000000000000000001F
:1041A000000000000000000000000000000000000F
:0841B000000000000000000007
:04000005080001AD41
:00000001FF
